{"abi":[{"type":"constructor","inputs":[{"name":"_identityRegistry","type":"address","internalType":"address"}],"stateMutability":"nonpayable"},{"type":"function","name":"authorizedHooks","inputs":[{"name":"","type":"address","internalType":"address"}],"outputs":[{"name":"","type":"bool","internalType":"bool"}],"stateMutability":"view"},{"type":"function","name":"feedbackCounts","inputs":[{"name":"","type":"uint256","internalType":"uint256"},{"name":"","type":"address","internalType":"address"}],"outputs":[{"name":"","type":"uint64","internalType":"uint64"}],"stateMutability":"view"},{"type":"function","name":"feedbacks","inputs":[{"name":"","type":"uint256","internalType":"uint256"},{"name":"","type":"address","internalType":"address"},{"name":"","type":"uint256","internalType":"uint256"}],"outputs":[{"name":"value","type":"int128","internalType":"int128"},{"name":"valueDecimals","type":"uint8","internalType":"uint8"},{"name":"tag1","type":"string","internalType":"string"},{"name":"tag2","type":"string","internalType":"string"},{"name":"isRevoked","type":"bool","internalType":"bool"}],"stateMutability":"view"},{"type":"function","name":"getFeedback","inputs":[{"name":"agentId","type":"uint256","internalType":"uint256"},{"name":"client","type":"address","internalType":"address"},{"name":"feedbackIndex","type":"uint64","internalType":"uint64"}],"outputs":[{"name":"","type":"tuple","internalType":"struct AgentReputation.Feedback","components":[{"name":"value","type":"int128","internalType":"int128"},{"name":"valueDecimals","type":"uint8","internalType":"uint8"},{"name":"tag1","type":"string","internalType":"string"},{"name":"tag2","type":"string","internalType":"string"},{"name":"isRevoked","type":"bool","internalType":"bool"}]}],"stateMutability":"view"},{"type":"function","name":"giveFeedback","inputs":[{"name":"agentId","type":"uint256","internalType":"uint256"},{"name":"value","type":"int128","internalType":"int128"},{"name":"valueDecimals","type":"uint8","internalType":"uint8"},{"name":"tag1","type":"string","internalType":"string"},{"name":"tag2","type":"string","internalType":"string"},{"name":"endpoint","type":"string","internalType":"string"},{"name":"feedbackURI","type":"string","internalType":"string"},{"name":"feedbackHash","type":"bytes32","internalType":"bytes32"}],"outputs":[],"stateMutability":"nonpayable"},{"type":"function","name":"identityRegistry","inputs":[],"outputs":[{"name":"","type":"address","internalType":"address"}],"stateMutability":"view"},{"type":"function","name":"owner","inputs":[],"outputs":[{"name":"","type":"address","internalType":"address"}],"stateMutability":"view"},{"type":"function","name":"renounceOwnership","inputs":[],"outputs":[],"stateMutability":"nonpayable"},{"type":"function","name":"revokeFeedback","inputs":[{"name":"agentId","type":"uint256","internalType":"uint256"},{"name":"feedbackIndex","type":"uint64","internalType":"uint64"}],"outputs":[],"stateMutability":"nonpayable"},{"type":"function","name":"setAuthorizedHook","inputs":[{"name":"hook","type":"address","internalType":"address"},{"name":"authorized","type":"bool","internalType":"bool"}],"outputs":[],"stateMutability":"nonpayable"},{"type":"function","name":"setHookAuthorization","inputs":[{"name":"hook","type":"address","internalType":"address"},{"name":"authorized","type":"bool","internalType":"bool"}],"outputs":[],"stateMutability":"nonpayable"},{"type":"function","name":"transferOwnership","inputs":[{"name":"newOwner","type":"address","internalType":"address"}],"outputs":[],"stateMutability":"nonpayable"},{"type":"event","name":"FeedbackRevoked","inputs":[{"name":"agentId","type":"uint256","indexed":true,"internalType":"uint256"},{"name":"clientAddress","type":"address","indexed":true,"internalType":"address"},{"name":"feedbackIndex","type":"uint64","indexed":true,"internalType":"uint64"}],"anonymous":false},{"type":"event","name":"HookAuthorizationSet","inputs":[{"name":"hook","type":"address","indexed":true,"internalType":"address"},{"name":"authorized","type":"bool","indexed":false,"internalType":"bool"}],"anonymous":false},{"type":"event","name":"NewFeedback","inputs":[{"name":"agentId","type":"uint256","indexed":true,"internalType":"uint256"},{"name":"clientAddress","type":"address","indexed":true,"internalType":"address"},{"name":"feedbackIndex","type":"uint64","indexed":false,"internalType":"uint64"},{"name":"value","type":"int128","indexed":false,"internalType":"int128"},{"name":"valueDecimals","type":"uint8","indexed":false,"internalType":"uint8"},{"name":"indexedTag1","type":"string","indexed":true,"internalType":"string"},{"name":"tag1","type":"string","indexed":false,"internalType":"string"},{"name":"tag2","type":"string","indexed":false,"internalType":"string"},{"name":"endpoint","type":"string","indexed":false,"internalType":"string"},{"name":"feedbackURI","type":"string","indexed":false,"internalType":"string"},{"name":"feedbackHash","type":"bytes32","indexed":false,"internalType":"bytes32"}],"anonymous":false},{"type":"event","name":"OwnershipTransferred","inputs":[{"name":"previousOwner","type":"address","indexed":true,"internalType":"address"},{"name":"newOwner","type":"address","indexed":true,"internalType":"address"}],"anonymous":false},{"type":"error","name":"AgentDoesNotExist","inputs":[]},{"type":"error","name":"AlreadyRevoked","inputs":[]},{"type":"error","name":"CannotRateSelf","inputs":[]},{"type":"error","name":"InvalidDecimals","inputs":[]},{"type":"error","name":"InvalidIndex","inputs":[]},{"type":"error","name":"NotAuthorizedHook","inputs":[]},{"type":"error","name":"OwnableInvalidOwner","inputs":[{"name":"owner","type":"address","internalType":"address"}]},{"type":"error","name":"OwnableUnauthorizedAccount","inputs":[{"name":"account","type":"address","internalType":"address"}]}],"bytecode":{"object":"0x60803460cd57601f610f7238819003918201601f19168301916001600160401b0383118484101760d15780849260209460405283398101031260cd57516001600160a01b0381169081900360cd57331560ba575f8054336001600160a01b0319821681178355604051939290916001600160a01b0316907f8be0079c531659141344cd1fd0a4f28419497f9722a3daafe3b4186f6b6457e09080a3600180546001600160a01b031916919091179055610e8c90816100e68239f35b631e4fbdf760e01b5f525f60045260245ffd5b5f80fd5b634e487b7160e01b5f52604160045260245ffdfe6080806040526004361015610012575f80fd5b5f3560e01c908163134e18f414610b45575080633c036a7e146105705780634ab3ca9914610496578063597d2f7b1461044957806365a52cd61461038c578063715018a614610335578063763ecc861461012957806386c2acb7146102f85780638da5cb5b146102d1578063a3a6ba381461014a578063a607535e146101295763f2fde38b146100a0575f80fd5b34610125576020366003190112610125576100b9610bab565b6100c1610e30565b6001600160a01b03168015610112575f80546001600160a01b03198116831782556001600160a01b0316907f8be0079c531659141344cd1fd0a4f28419497f9722a3daafe3b4186f6b6457e09080a3005b631e4fbdf760e01b5f525f60045260245ffd5b5f80fd5b346101255761014861013a36610d26565b90610143610e30565b610dd8565b005b3461012557606036600319011261012557600435610166610b95565b604435906001600160401b038216808303610125575f608060405161018a81610c26565b82815282602082015260606040820152606080820152015280159081156102a0575b50610291576101e1925f52600260205260405f209060018060a01b03165f526020526101db60405f2091610dba565b90610bc1565b506040516101ee81610c26565b81549182600f0b825260ff602083019360801c16835261028461021360018301610c62565b916040840192835261027160ff600361022e60028501610c62565b93606088019485520154169360808601941515855260ff6040519788976020895251600f0b6020890152511660408701525160a0606087015260c0860190610d02565b9051848203601f19016080860152610d02565b9051151560a08301520390f35b6363df817160e01b5f5260045ffd5b9050835f52600360205260405f2060018060a01b0383165f526020526001600160401b0360405f20541610846101ac565b34610125575f366003190112610125575f546040516001600160a01b039091168152602090f35b34610125576020366003190112610125576001600160a01b03610319610bab565b165f526004602052602060ff60405f2054166040519015158152f35b34610125575f3660031901126101255761034d610e30565b5f80546001600160a01b0319811682556001600160a01b03167f8be0079c531659141344cd1fd0a4f28419497f9722a3daafe3b4186f6b6457e08280a3005b34610125576060366003190112610125576103a5610b95565b604435906004355f52600260205260405f209060018060a01b03165f5260205260405f2080548210156101255760ff916103de91610bc1565b5080549061043d6103f160018301610c62565b9161042f85600361040460028501610c62565b930154169360405196868897600f0b885260801c16602087015260a0604087015260a0860190610d02565b908482036060860152610d02565b90151560808301520390f35b3461012557604036600319011261012557610462610b95565b6004355f52600360205260405f209060018060a01b03165f5260205260206001600160401b0360405f205416604051908152f35b3461012557604036600319011261012557600435602435906001600160401b038216918281036101255782158015610546575b610291576104fa600391835f52600260205260405f2060018060a01b0333165f526020526101db60405f2091610dba565b5001805460ff81166105375760ff1916600117905533907f25156fd3288212246d8b008d5921fde376c71ed14ac2e072a506eb06fde6d09d5f80a4005b63905e710760e01b5f5260045ffd5b505f8281526003602090815260408083203384529091529020546001600160401b031683116104c9565b3461012557610100366003190112610125576004356024359081600f0b809203610125576044359060ff8216809203610125576064356001600160401b038111610125576105c2903690600401610b68565b906084356001600160401b038111610125576105e2903690600401610b68565b9060a4356001600160401b03811161012557610602903690600401610b68565b91909260c4356001600160401b03811161012557610624903690600401610b68565b959096335f52600460205260ff60405f20541615610b365760128a11610b27576001546040516331a9108f60e11b8152600481018b905290602090829060249082906001600160a01b03165afa9081610ae9575b5061068c5763d3227c9b60e01b5f5260045ffd5b885f52600360205260405f2060018060a01b0333165f5260205260016001600160401b0360405f20541601996001600160401b038b11610ad557895f52600360205260405f2060018060a01b0333165f526020526001600160401b0360405f209b169a8b6001600160401b0319825416179055895f52600260205260405f2060018060a01b0333165f5260205260405f206040519061072a82610c26565b8d82526020820183815261073f368688610d55565b6040840190815261075136898b610d55565b916060850192835260808501935f85528054680100000000000000008110156109f05761078391600182018155610bc1565b959095610ac257518554915170ffffffffffffffffffffffffffffffffff199092166fffffffffffffffffffffffffffffffff9091161760809190911b60ff60801b1617845551805160018501916001600160401b0382116109f05781906107eb8454610bee565b601f8111610a72575b50602090601f8311600114610a0f575f92610a04575b50508160011b915f199060031b1c19161790555b51805160028401916001600160401b0382116109f05781906108408454610bee565b601f81116109a0575b50602090601f831160011461093d575f92610932575b50508160011b915f199060031b1c19161790555b5115159060030190610890919060ff801983541691151516179055565b60405182848237808381015f81520390209b6040519b8c5260208c015260408b015260608a0161010090526101008a01906108ca92610d9a565b9088820360808a01526108dc92610d9a565b9086820360a08801526108ee92610d9a565b9084820360c086015261090092610d9a565b9160e43560e0820152803393037f6a4a61743519c9d648a14e6493f47dbe3ff1aa29e7785c96c8326a205e58febc91a4005b015190505f8061085f565b5f8581528281209350601f198516905b8181106109885750908460019594939210610970575b505050811b019055610873565b01515f1960f88460031b161c191690555f8080610963565b9293602060018192878601518155019501930161094d565b909150835f5260205f20601f840160051c810191602085106109e6575b90601f859493920160051c01905b8181106109d85750610849565b5f81558493506001016109cb565b90915081906109bd565b634e487b7160e01b5f52604160045260245ffd5b015190505f8061080a565b5f8581528281209350601f198516905b818110610a5a5750908460019594939210610a42575b505050811b01905561081e565b01515f1960f88460031b161c191690555f8080610a35565b92936020600181928786015181550195019301610a1f565b909150835f5260205f20601f840160051c81019160208510610ab8575b90601f859493920160051c01905b818110610aaa57506107f4565b5f8155849350600101610a9d565b9091508190610a8f565b634e487b7160e01b5f525f60045260245ffd5b634e487b7160e01b5f52601160045260245ffd5b6020813d602011610b1f575b81610b0260209383610c41565b8101031261012557516001600160a01b0381168114610678575f80fd5b3d9150610af5565b630692acc560e51b5f5260045ffd5b632f9b722960e01b5f5260045ffd5b34610125575f366003190112610125576001546001600160a01b03168152602090f35b9181601f84011215610125578235916001600160401b038311610125576020838186019501011161012557565b602435906001600160a01b038216820361012557565b600435906001600160a01b038216820361012557565b8054821015610bda575f5260205f209060021b01905f90565b634e487b7160e01b5f52603260045260245ffd5b90600182811c92168015610c1c575b6020831014610c0857565b634e487b7160e01b5f52602260045260245ffd5b91607f1691610bfd565b60a081019081106001600160401b038211176109f057604052565b90601f801991011681019081106001600160401b038211176109f057604052565b9060405191825f825492610c7584610bee565b8084529360018116908115610ce05750600114610c9c575b50610c9a92500383610c41565b565b90505f9291925260205f20905f915b818310610cc4575050906020610c9a928201015f610c8d565b6020919350806001915483858901015201910190918492610cab565b905060209250610c9a94915060ff191682840152151560051b8201015f610c8d565b805180835260209291819084018484015e5f828201840152601f01601f1916010190565b6040906003190112610125576004356001600160a01b0381168103610125579060243580151581036101255790565b9291926001600160401b0382116109f05760405191610d7e601f8201601f191660200184610c41565b829481845281830111610125578281602093845f960137010152565b908060209392818452848401375f828201840152601f01601f1916010190565b6001600160401b035f19911601906001600160401b038211610ad557565b60207f111720ce32727d842851831f4dc7b9166906098ee3afe817f926eaa3f6e3dae49160018060a01b031692835f5260048252610e258160405f209060ff801983541691151516179055565b6040519015158152a2565b5f546001600160a01b03163303610e4357565b63118cdaa760e01b5f523360045260245ffdfea2646970667358221220d7d66232b2fe031d95977fbc4b104ff93dfdbd31db5076197d650fde45a73ffe64736f6c634300081a0033","linkReferences":{}},"methodIdentifiers":{"authorizedHooks(address)":"86c2acb7","feedbackCounts(uint256,address)":"597d2f7b","feedbacks(uint256,address,uint256)":"65a52cd6","getFeedback(uint256,address,uint64)":"a3a6ba38","giveFeedback(uint256,int128,uint8,string,string,string,string,bytes32)":"3c036a7e","identityRegistry()":"134e18f4","owner()":"8da5cb5b","renounceOwnership()":"715018a6","revokeFeedback(uint256,uint64)":"4ab3ca99","setAuthorizedHook(address,bool)":"763ecc86","setHookAuthorization(address,bool)":"a607535e","transferOwnership(address)":"f2fde38b"},"id":61}