{"abi":[{"type":"constructor","inputs":[],"stateMutability":"nonpayable"},{"type":"function","name":"approve","inputs":[{"name":"to","type":"address","internalType":"address"},{"name":"tokenId","type":"uint256","internalType":"uint256"}],"outputs":[],"stateMutability":"nonpayable"},{"type":"function","name":"balanceOf","inputs":[{"name":"owner","type":"address","internalType":"address"}],"outputs":[{"name":"","type":"uint256","internalType":"uint256"}],"stateMutability":"view"},{"type":"function","name":"getAgentWallet","inputs":[{"name":"agentId","type":"uint256","internalType":"uint256"}],"outputs":[{"name":"","type":"address","internalType":"address"}],"stateMutability":"view"},{"type":"function","name":"getApproved","inputs":[{"name":"tokenId","type":"uint256","internalType":"uint256"}],"outputs":[{"name":"","type":"address","internalType":"address"}],"stateMutability":"view"},{"type":"function","name":"getMetadata","inputs":[{"name":"agentId","type":"uint256","internalType":"uint256"},{"name":"metadataKey","type":"string","internalType":"string"}],"outputs":[{"name":"","type":"bytes","internalType":"bytes"}],"stateMutability":"view"},{"type":"function","name":"isApprovedForAll","inputs":[{"name":"owner","type":"address","internalType":"address"},{"name":"operator","type":"address","internalType":"address"}],"outputs":[{"name":"","type":"bool","internalType":"bool"}],"stateMutability":"view"},{"type":"function","name":"name","inputs":[],"outputs":[{"name":"","type":"string","internalType":"string"}],"stateMutability":"view"},{"type":"function","name":"nextAgentId","inputs":[],"outputs":[{"name":"","type":"uint256","internalType":"uint256"}],"stateMutability":"view"},{"type":"function","name":"owner","inputs":[],"outputs":[{"name":"","type":"address","internalType":"address"}],"stateMutability":"view"},{"type":"function","name":"ownerOf","inputs":[{"name":"tokenId","type":"uint256","internalType":"uint256"}],"outputs":[{"name":"","type":"address","internalType":"address"}],"stateMutability":"view"},{"type":"function","name":"register","inputs":[],"outputs":[{"name":"agentId","type":"uint256","internalType":"uint256"}],"stateMutability":"nonpayable"},{"type":"function","name":"register","inputs":[{"name":"agentURI","type":"string","internalType":"string"},{"name":"metadata","type":"tuple[]","internalType":"struct AgentRegistry.MetadataEntry[]","components":[{"name":"metadataKey","type":"string","internalType":"string"},{"name":"metadataValue","type":"bytes","internalType":"bytes"}]}],"outputs":[{"name":"agentId","type":"uint256","internalType":"uint256"}],"stateMutability":"nonpayable"},{"type":"function","name":"register","inputs":[{"name":"agentURI","type":"string","internalType":"string"}],"outputs":[{"name":"agentId","type":"uint256","internalType":"uint256"}],"stateMutability":"nonpayable"},{"type":"function","name":"renounceOwnership","inputs":[],"outputs":[],"stateMutability":"nonpayable"},{"type":"function","name":"safeTransferFrom","inputs":[{"name":"from","type":"address","internalType":"address"},{"name":"to","type":"address","internalType":"address"},{"name":"tokenId","type":"uint256","internalType":"uint256"}],"outputs":[],"stateMutability":"nonpayable"},{"type":"function","name":"safeTransferFrom","inputs":[{"name":"from","type":"address","internalType":"address"},{"name":"to","type":"address","internalType":"address"},{"name":"tokenId","type":"uint256","internalType":"uint256"},{"name":"data","type":"bytes","internalType":"bytes"}],"outputs":[],"stateMutability":"nonpayable"},{"type":"function","name":"setAgentURI","inputs":[{"name":"agentId","type":"uint256","internalType":"uint256"},{"name":"newURI","type":"string","internalType":"string"}],"outputs":[],"stateMutability":"nonpayable"},{"type":"function","name":"setAgentWallet","inputs":[{"name":"agentId","type":"uint256","internalType":"uint256"},{"name":"newWallet","type":"address","internalType":"address"},{"name":"deadline","type":"uint256","internalType":"uint256"},{"name":"signature","type":"bytes","internalType":"bytes"}],"outputs":[],"stateMutability":"nonpayable"},{"type":"function","name":"setApprovalForAll","inputs":[{"name":"operator","type":"address","internalType":"address"},{"name":"approved","type":"bool","internalType":"bool"}],"outputs":[],"stateMutability":"nonpayable"},{"type":"function","name":"setMetadata","inputs":[{"name":"agentId","type":"uint256","internalType":"uint256"},{"name":"metadataKey","type":"string","internalType":"string"},{"name":"metadataValue","type":"bytes","internalType":"bytes"}],"outputs":[],"stateMutability":"nonpayable"},{"type":"function","name":"supportsInterface","inputs":[{"name":"interfaceId","type":"bytes4","internalType":"bytes4"}],"outputs":[{"name":"","type":"bool","internalType":"bool"}],"stateMutability":"view"},{"type":"function","name":"symbol","inputs":[],"outputs":[{"name":"","type":"string","internalType":"string"}],"stateMutability":"view"},{"type":"function","name":"tokenURI","inputs":[{"name":"tokenId","type":"uint256","internalType":"uint256"}],"outputs":[{"name":"","type":"string","internalType":"string"}],"stateMutability":"view"},{"type":"function","name":"transferFrom","inputs":[{"name":"from","type":"address","internalType":"address"},{"name":"to","type":"address","internalType":"address"},{"name":"tokenId","type":"uint256","internalType":"uint256"}],"outputs":[],"stateMutability":"nonpayable"},{"type":"function","name":"transferOwnership","inputs":[{"name":"newOwner","type":"address","internalType":"address"}],"outputs":[],"stateMutability":"nonpayable"},{"type":"event","name":"AgentWalletSet","inputs":[{"name":"agentId","type":"uint256","indexed":true,"internalType":"uint256"},{"name":"newWallet","type":"address","indexed":true,"internalType":"address"}],"anonymous":false},{"type":"event","name":"Approval","inputs":[{"name":"owner","type":"address","indexed":true,"internalType":"address"},{"name":"approved","type":"address","indexed":true,"internalType":"address"},{"name":"tokenId","type":"uint256","indexed":true,"internalType":"uint256"}],"anonymous":false},{"type":"event","name":"ApprovalForAll","inputs":[{"name":"owner","type":"address","indexed":true,"internalType":"address"},{"name":"operator","type":"address","indexed":true,"internalType":"address"},{"name":"approved","type":"bool","indexed":false,"internalType":"bool"}],"anonymous":false},{"type":"event","name":"BatchMetadataUpdate","inputs":[{"name":"_fromTokenId","type":"uint256","indexed":false,"internalType":"uint256"},{"name":"_toTokenId","type":"uint256","indexed":false,"internalType":"uint256"}],"anonymous":false},{"type":"event","name":"MetadataSet","inputs":[{"name":"agentId","type":"uint256","indexed":true,"internalType":"uint256"},{"name":"indexedMetadataKey","type":"string","indexed":true,"internalType":"string"},{"name":"metadataKey","type":"string","indexed":false,"internalType":"string"},{"name":"metadataValue","type":"bytes","indexed":false,"internalType":"bytes"}],"anonymous":false},{"type":"event","name":"MetadataUpdate","inputs":[{"name":"_tokenId","type":"uint256","indexed":false,"internalType":"uint256"}],"anonymous":false},{"type":"event","name":"OwnershipTransferred","inputs":[{"name":"previousOwner","type":"address","indexed":true,"internalType":"address"},{"name":"newOwner","type":"address","indexed":true,"internalType":"address"}],"anonymous":false},{"type":"event","name":"Registered","inputs":[{"name":"agentId","type":"uint256","indexed":true,"internalType":"uint256"},{"name":"agentURI","type":"string","indexed":false,"internalType":"string"},{"name":"owner","type":"address","indexed":true,"internalType":"address"}],"anonymous":false},{"type":"event","name":"Transfer","inputs":[{"name":"from","type":"address","indexed":true,"internalType":"address"},{"name":"to","type":"address","indexed":true,"internalType":"address"},{"name":"tokenId","type":"uint256","indexed":true,"internalType":"uint256"}],"anonymous":false},{"type":"event","name":"URIUpdated","inputs":[{"name":"agentId","type":"uint256","indexed":true,"internalType":"uint256"},{"name":"newURI","type":"string","indexed":false,"internalType":"string"},{"name":"updatedBy","type":"address","indexed":true,"internalType":"address"}],"anonymous":false},{"type":"error","name":"CannotSetWalletDirectly","inputs":[]},{"type":"error","name":"ECDSAInvalidSignature","inputs":[]},{"type":"error","name":"ECDSAInvalidSignatureLength","inputs":[{"name":"length","type":"uint256","internalType":"uint256"}]},{"type":"error","name":"ECDSAInvalidSignatureS","inputs":[{"name":"s","type":"bytes32","internalType":"bytes32"}]},{"type":"error","name":"ERC721IncorrectOwner","inputs":[{"name":"sender","type":"address","internalType":"address"},{"name":"tokenId","type":"uint256","internalType":"uint256"},{"name":"owner","type":"address","internalType":"address"}]},{"type":"error","name":"ERC721InsufficientApproval","inputs":[{"name":"operator","type":"address","internalType":"address"},{"name":"tokenId","type":"uint256","internalType":"uint256"}]},{"type":"error","name":"ERC721InvalidApprover","inputs":[{"name":"approver","type":"address","internalType":"address"}]},{"type":"error","name":"ERC721InvalidOperator","inputs":[{"name":"operator","type":"address","internalType":"address"}]},{"type":"error","name":"ERC721InvalidOwner","inputs":[{"name":"owner","type":"address","internalType":"address"}]},{"type":"error","name":"ERC721InvalidReceiver","inputs":[{"name":"receiver","type":"address","internalType":"address"}]},{"type":"error","name":"ERC721InvalidSender","inputs":[{"name":"sender","type":"address","internalType":"address"}]},{"type":"error","name":"ERC721NonexistentToken","inputs":[{"name":"tokenId","type":"uint256","internalType":"uint256"}]},{"type":"error","name":"InvalidSignature","inputs":[]},{"type":"error","name":"NotAgentOwner","inputs":[]},{"type":"error","name":"NotAuthorized","inputs":[]},{"type":"error","name":"OwnableInvalidOwner","inputs":[{"name":"owner","type":"address","internalType":"address"}]},{"type":"error","name":"OwnableUnauthorizedAccount","inputs":[{"name":"account","type":"address","internalType":"address"}]},{"type":"error","name":"SignatureExpired","inputs":[]}],"bytecode":{"object":"0x60806040523461038357604080519081016001600160401b03811182821017610299576040908152601882527f54727573746c657373204167656e74204964656e746974790000000000000000602083015280519081016001600160401b0381118282101761029957604052600381526254414960e81b602082015281516001600160401b038111610299575f54600181811c91168015610379575b602082101461027b57601f8111610317575b50602092601f82116001146102b857928192935f926102ad575b50508160011b915f199060031b1c1916175f555b80516001600160401b03811161029957600154600181811c9116801561028f575b602082101461027b57601f8111610218575b50602091601f82116001146101b8579181925f926101ad575b50508160011b915f199060031b1c1916176001555b331561019a5760078054336001600160a01b03198216811790925560405191906001600160a01b03167f8be0079c531659141344cd1fd0a4f28419497f9722a3daafe3b4186f6b6457e05f80a36001600855611bdb90816103888239f35b631e4fbdf760e01b5f525f60045260245ffd5b015190505f80610127565b601f1982169260015f52805f20915f5b858110610200575083600195106101e8575b505050811b0160015561013c565b01515f1960f88460031b161c191690555f80806101da565b919260206001819286850151815501940192016101c8565b60015f527fb10e2d527612073b26eecdfd717e6a320cf44b4afac2b0732d9fcbe2b7fa0cf6601f830160051c81019160208410610271575b601f0160051c01905b818110610266575061010e565b5f8155600101610259565b9091508190610250565b634e487b7160e01b5f52602260045260245ffd5b90607f16906100fc565b634e487b7160e01b5f52604160045260245ffd5b015190505f806100c7565b601f198216935f8052805f20915f5b8681106102ff57508360019596106102e7575b505050811b015f556100db565b01515f1960f88460031b161c191690555f80806102da565b919260206001819286850151815501940192016102c7565b5f80527f290decd9548b62a8d60345a988386fc84ba6bc95484008f6362f93160ef3e563601f830160051c8101916020841061036f575b601f0160051c01905b81811061036457506100ad565b5f8155600101610357565b909150819061034e565b90607f169061009b565b5f80fdfe6080806040526004361015610012575f80fd5b5f3560e01c90816233950914610da15750806301ffc9a714610d1957806306fdde0314610c77578063081812fc14610c59578063095ea7b314610b6f5780630af28bd314610adf5780631aa3a00814610ab557806323b872dd14610a9e5780632d1ef5ae146108cf57806330efc498146108b257806342842e0e14610883578063466648da146107435780636352211e1461071357806370a08231146106c2578063715018a6146106675780638da5cb5b1461063f5780638ea422861461054c57806395d89b4114610482578063a22cb465146103ce578063b88d4fde14610361578063c87b56dd14610342578063cb4799f21461025b578063e985e9c514610204578063f2c298be146101b85763f2fde38b1461012e575f80fd5b346101b45760203660031901126101b457610147610df3565b61014f6118ed565b6001600160a01b031680156101a157600780546001600160a01b0319811683179091556001600160a01b03167f8be0079c531659141344cd1fd0a4f28419497f9722a3daafe3b4186f6b6457e05f80a3005b631e4fbdf760e01b5f525f60045260245ffd5b5f80fd5b346101b45760203660031901126101b4576004356001600160401b0381116101b4576101fc6101f76101f06020933690600401610e1f565b3691610f09565b6114bd565b604051908152f35b346101b45760403660031901126101b45761021d610df3565b610225610e09565b9060018060a01b03165f52600560205260405f209060018060a01b03165f52602052602060ff60405f2054166040519015158152f35b346101b457602061026b36610e4c565b92915f526009825260405f20836040519485938437820190815203019020604051905f9080549061029b82610f3f565b808552916001811690811561031b57506001146102db575b6102d7846102c381860382610eb9565b604051918291602083526020830190610dcf565b0390f35b5f90815260208120939250905b808210610301575090915081016020016102c3826102b3565b9192600181602092548385880101520191019092916102e8565b60ff191660208087019190915292151560051b850190920192506102c391508390506102b3565b346101b45760203660031901126101b4576102d76102c36004356111d4565b346101b45760803660031901126101b45761037a610df3565b610382610e09565b90604435606435926001600160401b0384116101b457366023850112156101b4576103ba6103cc943690602481600401359101610f09565b926103c6838383610f9b565b33611914565b005b346101b45760403660031901126101b4576103e7610df3565b602435908115158092036101b457331561046f576001600160a01b031690811561045c57335f52600560205260405f20825f5260205260405f2060ff1981541660ff83161790556040519081527f17307eab39ab6107e8899845ad3d59bd9653f200f220920489ca2b5937696c3160203392a3005b50630b61174360e31b5f5260045260245ffd5b63a9fbf51f60e01b5f525f60045260245ffd5b346101b4575f3660031901126101b4576040515f6001546104a281610f3f565b808452906001811690811561052857506001146104ca575b6102d7836102c381850382610eb9565b91905060015f527fb10e2d527612073b26eecdfd717e6a320cf44b4afac2b0732d9fcbe2b7fa0cf6915f905b80821061050e575090915081016020016102c36104ba565b9192600181602092548385880101520191019092916104f6565b60ff191660208086019190915291151560051b840190910191506102c390506104ba565b346101b45760403660031901126101b4576004356001600160401b0381116101b45761057c903690600401610e1f565b602435916001600160401b0383116101b457366023840112156101b4578260040135916001600160401b0383116101b4576024840193602436918560051b0101116101b4576105d0916101f7913691610f09565b915f5b8281106105e557602084604051908152f35b806106396106326106026105fc600195888861116c565b806111a2565b61062a610620610616878b8b97969761116c565b60208101906111a2565b9490923691610f09565b923691610f09565b9087611797565b016105d3565b346101b4575f3660031901126101b4576007546040516001600160a01b039091168152602090f35b346101b4575f3660031901126101b45761067f6118ed565b600780546001600160a01b031981169091555f906001600160a01b03167f8be0079c531659141344cd1fd0a4f28419497f9722a3daafe3b4186f6b6457e08280a3005b346101b45760203660031901126101b4576001600160a01b036106e3610df3565b168015610700575f526003602052602060405f2054604051908152f35b6322718ad960e21b5f525f60045260245ffd5b346101b45760203660031901126101b4576020610731600435611313565b6040516001600160a01b039091168152f35b346101b45760603660031901126101b4576004356024356001600160401b0381116101b457610776903690600401610e1f565b91906044356001600160401b0381116101b457610797903690600401610e1f565b91906107a284611313565b6001600160a01b031633141580610868575b80610833575b610824576107c9368684610f09565b60208151910120600b60206040516107e2604082610eb9565b828152016a1859d95b9d15d85b1b195d60aa1b815220146108155761062a61080f926103cc963691610f09565b91611797565b630235a4cb60e21b5f5260045ffd5b63ea8e4eb560e01b5f5260045ffd5b506001600160a01b0361084585611313565b165f90815260056020908152604080832033845290915290205460ff16156107ba565b50336001600160a01b0361087b86610f77565b1614156107b4565b346101b4576103cc61089436610e7f565b90604051926108a4602085610eb9565b5f84526103c6838383610f9b565b346101b4575f3660031901126101b4576020600854604051908152f35b346101b45760803660031901126101b4576004356108eb610e09565b90604435916064356001600160401b0381116101b45761090f903690600401610e1f565b9061091984611313565b336001600160a01b0390911603610a8f57844211610a80576109cd916109be6109c492604051602081019088825260018060a01b038816998a986001600160601b03199060601b16604083015260548201524660748201523060601b60948201526088815261098960a882610eb9565b5190207f19457468657265756d205369676e6564204d6573736167653a0a3332000000005f52601c52603c5f20923691610f09565b90611a4a565b90929192611a84565b6001600160a01b031603610a7157805f52600a60205260405f20826001600160601b0360a01b8254161790556040519180827fc1b62bacf2a2f4363c2190e00f2370f3b563001a0c56c73eae69619e58e9624c5f80a3602083015260208252610a37604083610eb9565b5f80516020611b86833981519152610a6c600b6040516a1859d95b9d15d85b1b195d60aa1b8152209360405191829182611136565b0390a3005b638baa579f60e01b5f5260045ffd5b630819bdcd60e01b5f5260045ffd5b630e41dcbf60e21b5f5260045ffd5b346101b4576103cc610aaf36610e7f565b91610f9b565b346101b4575f3660031901126101b45760206101fc604051610ad78382610eb9565b5f81526114bd565b346101b457610aed36610e4c565b9190610af882611313565b336001600160a01b0390911603610a8f577f3a2c7fffc2cba7582c690e3b82c453ea02a308326a98a3ad7576c606336409fb90610b3f610b39368684610f09565b84611396565b83604051916020835281602084015260408301375f604085830101526040813395601f80199101168101030190a3005b346101b45760403660031901126101b457610b88610df3565b602435610b9481611313565b33151580610c46575b80610c19575b610c065781906001600160a01b0384811691167f8c5be1e5ebec7d5bd14f71427d1e84f3dd0314c0f7b2291e5b200ac8c7c3b9255f80a45f90815260046020526040902080546001600160a01b0319166001600160a01b03909216919091179055005b63a9fbf51f60e01b5f523360045260245ffd5b506001600160a01b0381165f90815260056020908152604080832033845290915290205460ff1615610ba3565b506001600160a01b038116331415610b9d565b346101b45760203660031901126101b4576020610731600435610f77565b346101b4575f3660031901126101b4576040515f8054610c9681610f3f565b80845290600181169081156105285750600114610cbd576102d7836102c381850382610eb9565b5f8080527f290decd9548b62a8d60345a988386fc84ba6bc95484008f6362f93160ef3e563939250905b808210610cff575090915081016020016102c36104ba565b919260018160209254838588010152019101909291610ce7565b346101b45760203660031901126101b45760043563ffffffff60e01b81168091036101b457602090632483248360e11b8114908115610d5e575b506040519015158152f35b6380ac58cd60e01b811491508115610d90575b8115610d7f575b5082610d53565b6301ffc9a760e01b14905082610d78565b635b5e139f60e01b81149150610d71565b346101b45760203660031901126101b4576020906004355f52600a825260018060a01b0360405f2054168152f35b805180835260209291819084018484015e5f828201840152601f01601f1916010190565b600435906001600160a01b03821682036101b457565b602435906001600160a01b03821682036101b457565b9181601f840112156101b4578235916001600160401b0383116101b457602083818601950101116101b457565b9060406003198301126101b45760043591602435906001600160401b0382116101b457610e7b91600401610e1f565b9091565b60609060031901126101b4576004356001600160a01b03811681036101b457906024356001600160a01b03811681036101b4579060443590565b90601f801991011681019081106001600160401b03821117610eda57604052565b634e487b7160e01b5f52604160045260245ffd5b6001600160401b038111610eda57601f01601f191660200190565b929192610f1582610eee565b91610f236040519384610eb9565b8294818452818301116101b4578281602093845f960137010152565b90600182811c92168015610f6d575b6020831014610f5957565b634e487b7160e01b5f52602260045260245ffd5b91607f1691610f4e565b610f8081611313565b505f908152600460205260409020546001600160a01b031690565b6001600160a01b0390911691908215611123575f828152600260205260409020546001600160a01b03169282903315158061108e575b508461105b575b805f52600360205260405f2060018154019055815f52600260205260405f20816001600160601b0360a01b825416179055847fddf252ad1be2c89b69c2b068fc378daa952ba7f163c4a11628f55a4df523b3ef5f80a46001600160a01b031680830361104357505050565b6364283d7b60e01b5f5260045260245260445260645ffd5b5f82815260046020526040902080546001600160a01b0319169055845f52600360205260405f205f198154019055610fd8565b909150806110d2575b156110a45782905f610fd1565b82846110bc57637e27328960e01b5f5260045260245ffd5b63177e802f60e01b5f523360045260245260445ffd5b503384148015611101575b8061109757505f838152600460205260409020546001600160a01b03163314611097565b505f84815260056020908152604080832033845290915290205460ff166110dd565b633250574960e11b5f525f60045260245ffd5b9060806111699260408152600b60408201526a1859d95b9d15d85b1b195d60aa1b60608201528160208201520190610dcf565b90565b919081101561118e5760051b81013590603e19813603018212156101b4570190565b634e487b7160e01b5f52603260045260245ffd5b903590601e19813603018212156101b457018035906001600160401b0382116101b4576020019181360383136101b457565b6111dd81611313565b506020906040516111ee8382610eb9565b5f8152815f526006835260405f206040515f918181549361120e85610f3f565b9283835288830195896001821691825f146112f55750506001146112b9575b5061123a92500382610eb9565b8251156112b157908185925161127a575050505061125790611313565b505f6040516112668382610eb9565b526112746040519182610eb9565b5f815290565b61116994506040519584879551918291018587015e840190838201905f8252519283915e01015f815203601f198101835282610eb9565b935050505090565b9150505f528186805f205f905b8482106112dc575061123a93508201015f61122d565b60019193508054838588010152019101879084926112c6565b60ff1916885261123a95151560051b85010192505f915061122d9050565b5f818152600260205260409020546001600160a01b0316908115611335575090565b637e27328960e01b5f5260045260245ffd5b601f821161135457505050565b5f5260205f20906020601f840160051c8301931061138c575b601f0160051c01905b818110611381575050565b5f8155600101611376565b909150819061136d565b919091805f52600660205260405f2083516001600160401b038111610eda576113c9816113c38454610f3f565b84611347565b6020601f82116001146114355781602094939261141e927ff8e1a15aba9398e019f0b49df1a4fde98ee17ae345cb5f6b5e2c27f5033e8ce797985f9261142a575b50508160011b915f199060031b1c19161790565b90555b604051908152a1565b015190505f8061140a565b601f19821695835f52815f20965f5b8181106114a5575096600192849260209796957ff8e1a15aba9398e019f0b49df1a4fde98ee17ae345cb5f6b5e2c27f5033e8ce7999a1061148d575b505050811b019055611421565b01515f1960f88460031b161c191690555f8080611480565b83830151895560019098019760209384019301611444565b60085491905f1983146117835760018301600855826020916040516114e28482610eb9565b5f81523315611123575f8381526002855260409020546001600160a01b03168015159081611752575b335f8181526003885260408082208054600101905587825260028952812080546001600160a01b0319168317905586919083907fddf252ad1be2c89b69c2b068fc378daa952ba7f163c4a11628f55a4df523b3ef9080a45061173f57333b61162a575b506116258161159e7fca52e62c367d81bb2e328eb795f7c7ba24afb478408a26c0e201d155c449bc4a9385611396565b835f52600a855260405f2060018060a01b0333166001600160601b0360a01b82541617905560405133868201528581526115d9604082610eb9565b845f80516020611b8683398151915261160f600b6040516a1859d95b9d15d85b1b195d60aa1b8152209360405191829182611136565b0390a36040519182918683523396830190610dcf565b0390a3565b83611667916040979695975180938192630a85bd0160e11b83523360048401525f6024840152876044840152608060648401526084830190610dcf565b03815f335af15f91816116ff575b506116c957853d156116c1573d9061168c82610eee565b9161169a6040519384610eb9565b82523d5f8284013e5b815191826116be57633250574960e11b5f523360045260245ffd5b01fd5b6060906116a3565b939492936001600160e01b03191663757a42ff60e11b016116ec5761162561156e565b633250574960e11b5f523360045260245ffd5b9091508681813d8311611738575b6117178183610eb9565b810103126101b457516001600160e01b0319811681036101b457905f611675565b503d61170d565b6339e3563760e11b5f525f60045260245ffd5b5f8581526004602052604080822080546001600160a01b031916905582825260038852902080545f1901905561150b565b634e487b7160e01b5f52601160045260245ffd5b92919092805f52600960205260405f209360405160208183519782850198808a845e820190815203019020948351956001600160401b038711610eda576117e8876117e28354610f3f565b83611347565b602096601f81116001146118745791611625916118308461185b96955f80516020611b8683398151915298999a9b5f91611869575b508160011b915f199060031b1c19161790565b90555b604051809184518091835e81015f815203902095604051938493604085526040850190610dcf565b908382036020850152610dcf565b90508a01515f61181d565b601f198116825f52885f20905f5b8181106118d557508261162594925f80516020611b8683398151915298999a9b61185b989795600194106118bd575b5050811b019055611833565b8b01515f1960f88460031b161c191690555f806118b1565b888b0151835560209a8b019a60019093019201611882565b6007546001600160a01b0316330361190157565b63118cdaa760e01b5f523360045260245ffd5b823b611922575b5050505050565b604051630a85bd0160e11b81526001600160a01b03918216600482015291811660248301526044820193909352608060648201529116916020908290819061196e906084830190610dcf565b03815f865af15f9181611a05575b506119d157503d156119ca573d61199281610eee565b906119a06040519283610eb9565b81523d5f602083013e5b805190816119c55782633250574960e11b5f5260045260245ffd5b602001fd5b60606119aa565b6001600160e01b03191663757a42ff60e11b016119f357505f8080808061191b565b633250574960e11b5f5260045260245ffd5b9091506020813d602011611a42575b81611a2160209383610eb9565b810103126101b457516001600160e01b0319811681036101b457905f61197c565b3d9150611a14565b8151919060418303611a7a57611a739250602082015190606060408401519301515f1a90611af8565b9192909190565b50505f9160029190565b6004811015611ae45780611a96575050565b60018103611aad5763f645eedf60e01b5f5260045ffd5b60028103611ac8575063fce698f760e01b5f5260045260245ffd5b600314611ad25750565b6335e2f38360e21b5f5260045260245ffd5b634e487b7160e01b5f52602160045260245ffd5b91907f7fffffffffffffffffffffffffffffff5d576e7357a4501ddfe92f46681b20a08411611b7a579160209360809260ff5f9560405194855216868401526040830152606082015282805260015afa15611b6f575f516001600160a01b03811615611b6557905f905f90565b505f906001905f90565b6040513d5f823e3d90fd5b5050505f916003919056fe2c149ed548c6d2993cd73efe187df6eccabe4538091b33adbd25fafdb8a1468ba26469706673582212203f5161e351e3f4e8d75ad2096017a9b4b848ef1833b4a83848a3be996d8fe6c364736f6c634300081a0033","linkReferences":{}},"methodIdentifiers":{"approve(address,uint256)":"095ea7b3","balanceOf(address)":"70a08231","getAgentWallet(uint256)":"00339509","getApproved(uint256)":"081812fc","getMetadata(uint256,string)":"cb4799f2","isApprovedForAll(address,address)":"e985e9c5","name()":"06fdde03","nextAgentId()":"30efc498","owner()":"8da5cb5b","ownerOf(uint256)":"6352211e","register()":"1aa3a008","register(string)":"f2c298be","register(string,(string,bytes)[])":"8ea42286","renounceOwnership()":"715018a6","safeTransferFrom(address,address,uint256)":"42842e0e","safeTransferFrom(address,address,uint256,bytes)":"b88d4fde","setAgentURI(uint256,string)":"0af28bd3","setAgentWallet(uint256,address,uint256,bytes)":"2d1ef5ae","setApprovalForAll(address,bool)":"a22cb465","setMetadata(uint256,string,bytes)":"466648da","supportsInterface(bytes4)":"01ffc9a7","symbol()":"95d89b41","tokenURI(uint256)":"c87b56dd","transferFrom(address,address,uint256)":"23b872dd","transferOwnership(address)":"f2fde38b"},"id":115}