{"abi":[{"type":"constructor","inputs":[{"name":"_poolManager","type":"address","internalType":"contract IPoolManager"},{"name":"_reputation","type":"address","internalType":"address"}],"stateMutability":"nonpayable"},{"type":"function","name":"MAX_ITERATIONS","inputs":[],"outputs":[{"name":"","type":"uint256","internalType":"uint256"}],"stateMutability":"view"},{"type":"function","name":"POOL_MANAGER","inputs":[],"outputs":[{"name":"","type":"address","internalType":"contract IPoolManager"}],"stateMutability":"view"},{"type":"function","name":"acceptOwnership","inputs":[],"outputs":[],"stateMutability":"nonpayable"},{"type":"function","name":"afterAddLiquidity","inputs":[{"name":"","type":"address","internalType":"address"},{"name":"","type":"tuple","internalType":"struct PoolKey","components":[{"name":"currency0","type":"address","internalType":"Currency"},{"name":"currency1","type":"address","internalType":"Currency"},{"name":"fee","type":"uint24","internalType":"uint24"},{"name":"tickSpacing","type":"int24","internalType":"int24"},{"name":"hooks","type":"address","internalType":"contract IHooks"}]},{"name":"","type":"tuple","internalType":"struct ModifyLiquidityParams","components":[{"name":"tickLower","type":"int24","internalType":"int24"},{"name":"tickUpper","type":"int24","internalType":"int24"},{"name":"liquidityDelta","type":"int256","internalType":"int256"},{"name":"salt","type":"bytes32","internalType":"bytes32"}]},{"name":"","type":"int256","internalType":"BalanceDelta"},{"name":"","type":"int256","internalType":"BalanceDelta"},{"name":"","type":"bytes","internalType":"bytes"}],"outputs":[{"name":"","type":"bytes4","internalType":"bytes4"},{"name":"","type":"int256","internalType":"BalanceDelta"}],"stateMutability":"pure"},{"type":"function","name":"afterDonate","inputs":[{"name":"","type":"address","internalType":"address"},{"name":"","type":"tuple","internalType":"struct PoolKey","components":[{"name":"currency0","type":"address","internalType":"Currency"},{"name":"currency1","type":"address","internalType":"Currency"},{"name":"fee","type":"uint24","internalType":"uint24"},{"name":"tickSpacing","type":"int24","internalType":"int24"},{"name":"hooks","type":"address","internalType":"contract IHooks"}]},{"name":"","type":"uint256","internalType":"uint256"},{"name":"","type":"uint256","internalType":"uint256"},{"name":"","type":"bytes","internalType":"bytes"}],"outputs":[{"name":"","type":"bytes4","internalType":"bytes4"}],"stateMutability":"pure"},{"type":"function","name":"afterInitialize","inputs":[{"name":"","type":"address","internalType":"address"},{"name":"","type":"tuple","internalType":"struct PoolKey","components":[{"name":"currency0","type":"address","internalType":"Currency"},{"name":"currency1","type":"address","internalType":"Currency"},{"name":"fee","type":"uint24","internalType":"uint24"},{"name":"tickSpacing","type":"int24","internalType":"int24"},{"name":"hooks","type":"address","internalType":"contract IHooks"}]},{"name":"","type":"uint160","internalType":"uint160"},{"name":"","type":"int24","internalType":"int24"}],"outputs":[{"name":"","type":"bytes4","internalType":"bytes4"}],"stateMutability":"pure"},{"type":"function","name":"afterRemoveLiquidity","inputs":[{"name":"","type":"address","internalType":"address"},{"name":"","type":"tuple","internalType":"struct PoolKey","components":[{"name":"currency0","type":"address","internalType":"Currency"},{"name":"currency1","type":"address","internalType":"Currency"},{"name":"fee","type":"uint24","internalType":"uint24"},{"name":"tickSpacing","type":"int24","internalType":"int24"},{"name":"hooks","type":"address","internalType":"contract IHooks"}]},{"name":"","type":"tuple","internalType":"struct ModifyLiquidityParams","components":[{"name":"tickLower","type":"int24","internalType":"int24"},{"name":"tickUpper","type":"int24","internalType":"int24"},{"name":"liquidityDelta","type":"int256","internalType":"int256"},{"name":"salt","type":"bytes32","internalType":"bytes32"}]},{"name":"","type":"int256","internalType":"BalanceDelta"},{"name":"","type":"int256","internalType":"BalanceDelta"},{"name":"","type":"bytes","internalType":"bytes"}],"outputs":[{"name":"","type":"bytes4","internalType":"bytes4"},{"name":"","type":"int256","internalType":"BalanceDelta"}],"stateMutability":"pure"},{"type":"function","name":"afterSwap","inputs":[{"name":"","type":"address","internalType":"address"},{"name":"","type":"tuple","internalType":"struct PoolKey","components":[{"name":"currency0","type":"address","internalType":"Currency"},{"name":"currency1","type":"address","internalType":"Currency"},{"name":"fee","type":"uint24","internalType":"uint24"},{"name":"tickSpacing","type":"int24","internalType":"int24"},{"name":"hooks","type":"address","internalType":"contract IHooks"}]},{"name":"","type":"tuple","internalType":"struct SwapParams","components":[{"name":"zeroForOne","type":"bool","internalType":"bool"},{"name":"amountSpecified","type":"int256","internalType":"int256"},{"name":"sqrtPriceLimitX96","type":"uint160","internalType":"uint160"}]},{"name":"","type":"int256","internalType":"BalanceDelta"},{"name":"","type":"bytes","internalType":"bytes"}],"outputs":[{"name":"","type":"bytes4","internalType":"bytes4"},{"name":"","type":"int128","internalType":"int128"}],"stateMutability":"pure"},{"type":"function","name":"allowedBots","inputs":[{"name":"","type":"address","internalType":"address"}],"outputs":[{"name":"","type":"bool","internalType":"bool"}],"stateMutability":"view"},{"type":"function","name":"beforeAddLiquidity","inputs":[{"name":"","type":"address","internalType":"address"},{"name":"","type":"tuple","internalType":"struct PoolKey","components":[{"name":"currency0","type":"address","internalType":"Currency"},{"name":"currency1","type":"address","internalType":"Currency"},{"name":"fee","type":"uint24","internalType":"uint24"},{"name":"tickSpacing","type":"int24","internalType":"int24"},{"name":"hooks","type":"address","internalType":"contract IHooks"}]},{"name":"","type":"tuple","internalType":"struct ModifyLiquidityParams","components":[{"name":"tickLower","type":"int24","internalType":"int24"},{"name":"tickUpper","type":"int24","internalType":"int24"},{"name":"liquidityDelta","type":"int256","internalType":"int256"},{"name":"salt","type":"bytes32","internalType":"bytes32"}]},{"name":"","type":"bytes","internalType":"bytes"}],"outputs":[{"name":"","type":"bytes4","internalType":"bytes4"}],"stateMutability":"pure"},{"type":"function","name":"beforeDonate","inputs":[{"name":"","type":"address","internalType":"address"},{"name":"","type":"tuple","internalType":"struct PoolKey","components":[{"name":"currency0","type":"address","internalType":"Currency"},{"name":"currency1","type":"address","internalType":"Currency"},{"name":"fee","type":"uint24","internalType":"uint24"},{"name":"tickSpacing","type":"int24","internalType":"int24"},{"name":"hooks","type":"address","internalType":"contract IHooks"}]},{"name":"","type":"uint256","internalType":"uint256"},{"name":"","type":"uint256","internalType":"uint256"},{"name":"","type":"bytes","internalType":"bytes"}],"outputs":[{"name":"","type":"bytes4","internalType":"bytes4"}],"stateMutability":"pure"},{"type":"function","name":"beforeInitialize","inputs":[{"name":"","type":"address","internalType":"address"},{"name":"","type":"tuple","internalType":"struct PoolKey","components":[{"name":"currency0","type":"address","internalType":"Currency"},{"name":"currency1","type":"address","internalType":"Currency"},{"name":"fee","type":"uint24","internalType":"uint24"},{"name":"tickSpacing","type":"int24","internalType":"int24"},{"name":"hooks","type":"address","internalType":"contract IHooks"}]},{"name":"","type":"uint160","internalType":"uint160"}],"outputs":[{"name":"","type":"bytes4","internalType":"bytes4"}],"stateMutability":"pure"},{"type":"function","name":"beforeRemoveLiquidity","inputs":[{"name":"","type":"address","internalType":"address"},{"name":"","type":"tuple","internalType":"struct PoolKey","components":[{"name":"currency0","type":"address","internalType":"Currency"},{"name":"currency1","type":"address","internalType":"Currency"},{"name":"fee","type":"uint24","internalType":"uint24"},{"name":"tickSpacing","type":"int24","internalType":"int24"},{"name":"hooks","type":"address","internalType":"contract IHooks"}]},{"name":"","type":"tuple","internalType":"struct ModifyLiquidityParams","components":[{"name":"tickLower","type":"int24","internalType":"int24"},{"name":"tickUpper","type":"int24","internalType":"int24"},{"name":"liquidityDelta","type":"int256","internalType":"int256"},{"name":"salt","type":"bytes32","internalType":"bytes32"}]},{"name":"","type":"bytes","internalType":"bytes"}],"outputs":[{"name":"","type":"bytes4","internalType":"bytes4"}],"stateMutability":"pure"},{"type":"function","name":"beforeSwap","inputs":[{"name":"sender","type":"address","internalType":"address"},{"name":"key","type":"tuple","internalType":"struct PoolKey","components":[{"name":"currency0","type":"address","internalType":"Currency"},{"name":"currency1","type":"address","internalType":"Currency"},{"name":"fee","type":"uint24","internalType":"uint24"},{"name":"tickSpacing","type":"int24","internalType":"int24"},{"name":"hooks","type":"address","internalType":"contract IHooks"}]},{"name":"params","type":"tuple","internalType":"struct SwapParams","components":[{"name":"zeroForOne","type":"bool","internalType":"bool"},{"name":"amountSpecified","type":"int256","internalType":"int256"},{"name":"sqrtPriceLimitX96","type":"uint160","internalType":"uint160"}]},{"name":"","type":"bytes","internalType":"bytes"}],"outputs":[{"name":"","type":"bytes4","internalType":"bytes4"},{"name":"","type":"int256","internalType":"BeforeSwapDelta"},{"name":"","type":"uint24","internalType":"uint24"}],"stateMutability":"nonpayable"},{"type":"function","name":"cancelOrder","inputs":[{"name":"orderId","type":"uint256","internalType":"uint256"},{"name":"key","type":"tuple","internalType":"struct PoolKey","components":[{"name":"currency0","type":"address","internalType":"Currency"},{"name":"currency1","type":"address","internalType":"Currency"},{"name":"fee","type":"uint24","internalType":"uint24"},{"name":"tickSpacing","type":"int24","internalType":"int24"},{"name":"hooks","type":"address","internalType":"contract IHooks"}]}],"outputs":[],"stateMutability":"nonpayable"},{"type":"function","name":"isSentinel","inputs":[{"name":"","type":"address","internalType":"address"}],"outputs":[{"name":"","type":"bool","internalType":"bool"}],"stateMutability":"view"},{"type":"function","name":"nextOrderId","inputs":[],"outputs":[{"name":"","type":"uint256","internalType":"uint256"}],"stateMutability":"view"},{"type":"function","name":"orders","inputs":[{"name":"","type":"uint256","internalType":"uint256"}],"outputs":[{"name":"maker","type":"address","internalType":"address"},{"name":"expiry","type":"uint64","internalType":"uint64"},{"name":"sellToken0","type":"bool","internalType":"bool"},{"name":"active","type":"bool","internalType":"bool"},{"name":"isHuman","type":"bool","internalType":"bool"},{"name":"amountIn","type":"uint128","internalType":"uint128"},{"name":"minAmountOut","type":"uint128","internalType":"uint128"},{"name":"poolId","type":"bytes32","internalType":"bytes32"},{"name":"currency0","type":"address","internalType":"Currency"},{"name":"currency1","type":"address","internalType":"Currency"}],"stateMutability":"view"},{"type":"function","name":"owner","inputs":[],"outputs":[{"name":"","type":"address","internalType":"address"}],"stateMutability":"view"},{"type":"function","name":"pendingOwner","inputs":[],"outputs":[{"name":"","type":"address","internalType":"address"}],"stateMutability":"view"},{"type":"function","name":"poolOrders","inputs":[{"name":"","type":"bytes32","internalType":"bytes32"},{"name":"","type":"uint256","internalType":"uint256"}],"outputs":[{"name":"","type":"uint256","internalType":"uint256"}],"stateMutability":"view"},{"type":"function","name":"postOrder","inputs":[{"name":"key","type":"tuple","internalType":"struct PoolKey","components":[{"name":"currency0","type":"address","internalType":"Currency"},{"name":"currency1","type":"address","internalType":"Currency"},{"name":"fee","type":"uint24","internalType":"uint24"},{"name":"tickSpacing","type":"int24","internalType":"int24"},{"name":"hooks","type":"address","internalType":"contract IHooks"}]},{"name":"sellToken0","type":"bool","internalType":"bool"},{"name":"amountIn","type":"uint128","internalType":"uint128"},{"name":"minAmountOut","type":"uint128","internalType":"uint128"},{"name":"duration","type":"uint256","internalType":"uint256"}],"outputs":[{"name":"orderId","type":"uint256","internalType":"uint256"}],"stateMutability":"nonpayable"},{"type":"function","name":"renounceOwnership","inputs":[],"outputs":[],"stateMutability":"nonpayable"},{"type":"function","name":"reputation","inputs":[],"outputs":[{"name":"","type":"address","internalType":"contract AgentReputation"}],"stateMutability":"view"},{"type":"function","name":"setReputation","inputs":[{"name":"_reputation","type":"address","internalType":"address"}],"outputs":[],"stateMutability":"nonpayable"},{"type":"function","name":"setSentinel","inputs":[{"name":"_sentinel","type":"address","internalType":"address"},{"name":"_status","type":"bool","internalType":"bool"}],"outputs":[],"stateMutability":"nonpayable"},{"type":"function","name":"transferOwnership","inputs":[{"name":"newOwner","type":"address","internalType":"address"}],"outputs":[],"stateMutability":"nonpayable"},{"type":"function","name":"triggerOrder","inputs":[{"name":"orderId","type":"uint256","internalType":"uint256"},{"name":"agentId","type":"uint256","internalType":"uint256"},{"name":"beneficiary","type":"address","internalType":"address"}],"outputs":[],"stateMutability":"nonpayable"},{"type":"event","name":"OrderCancelled","inputs":[{"name":"orderId","type":"uint256","indexed":true,"internalType":"uint256"},{"name":"maker","type":"address","indexed":true,"internalType":"address"}],"anonymous":false},{"type":"event","name":"OrderExpired","inputs":[{"name":"orderId","type":"uint256","indexed":true,"internalType":"uint256"},{"name":"maker","type":"address","indexed":true,"internalType":"address"}],"anonymous":false},{"type":"event","name":"OrderFilled","inputs":[{"name":"orderId","type":"uint256","indexed":true,"internalType":"uint256"},{"name":"taker","type":"address","indexed":true,"internalType":"address"},{"name":"byReactiveAi","type":"bool","indexed":false,"internalType":"bool"}],"anonymous":false},{"type":"event","name":"OrderPosted","inputs":[{"name":"orderId","type":"uint256","indexed":true,"internalType":"uint256"},{"name":"maker","type":"address","indexed":true,"internalType":"address"},{"name":"isHuman","type":"bool","indexed":false,"internalType":"bool"},{"name":"amountIn","type":"uint128","indexed":false,"internalType":"uint128"},{"name":"minAmountOut","type":"uint128","indexed":false,"internalType":"uint128"}],"anonymous":false},{"type":"event","name":"OwnershipTransferStarted","inputs":[{"name":"previousOwner","type":"address","indexed":true,"internalType":"address"},{"name":"newOwner","type":"address","indexed":true,"internalType":"address"}],"anonymous":false},{"type":"event","name":"OwnershipTransferred","inputs":[{"name":"previousOwner","type":"address","indexed":true,"internalType":"address"},{"name":"newOwner","type":"address","indexed":true,"internalType":"address"}],"anonymous":false},{"type":"error","name":"AlreadyExpired","inputs":[]},{"type":"error","name":"AmountOverflow","inputs":[]},{"type":"error","name":"InvalidAgentWallet","inputs":[]},{"type":"error","name":"InvalidAmounts","inputs":[]},{"type":"error","name":"NotSentinel","inputs":[]},{"type":"error","name":"NotWhitelisted","inputs":[]},{"type":"error","name":"OrderNotActive","inputs":[]},{"type":"error","name":"OrderNotFound","inputs":[]},{"type":"error","name":"OwnableInvalidOwner","inputs":[{"name":"owner","type":"address","internalType":"address"}]},{"type":"error","name":"OwnableUnauthorizedAccount","inputs":[{"name":"account","type":"address","internalType":"address"}]},{"type":"error","name":"PoolMismatch","inputs":[]},{"type":"error","name":"ReentrancyGuardReentrantCall","inputs":[]},{"type":"error","name":"SafeERC20FailedOperation","inputs":[{"name":"token","type":"address","internalType":"address"}]},{"type":"error","name":"Unauthorized","inputs":[]}],"bytecode":{"object":"0x60a03461013157601f611d1538819003918201601f19168301916001600160401b03831184841017610135578084926040948552833981010312610131578051906001600160a01b038216820361013157602001516001600160a01b038116908190036101315760017f9b779b17422d0df92223018b32b4d1fa46e071723d6817e2486d003becc55f0055331561011e57600180546001600160a01b03199081169091555f805433928116831782556040519492916001600160a01b03909116907f8be0079c531659141344cd1fd0a4f28419497f9722a3daafe3b4186f6b6457e09080a3608052600780546001600160a01b031916919091179055611bcb908161014a82396080518181816103f60152818161049e01526113520152f35b631e4fbdf760e01b5f525f60045260245ffd5b5f80fd5b634e487b7160e01b5f52604160045260245ffdfe60806040526004361015610011575f80fd5b5f3560e01c8062796bf7146101d35780631d92c26d146101ce57806321d0ee70146101c9578063259982e5146101c45780632a58b330146101bf578063575e24b4146101ba57806362308e85146101b55780636c2bbe7e146101b05780636fe7e6eb146101ab578063715018a6146101a657806379ba5097146101a15780638da5cb5b1461019c5780639f063efc14610197578063a85c38ef14610192578063b47b2fb11461018d578063b6a8b0fa14610188578063ba03a75f14610183578063bf8d3a631461017e578063c0ffd5e314610179578063c3e0858b14610174578063c52164c61461016f578063d10c151d1461016a578063d3d368c014610165578063dc98354e14610160578063e1b4af691461015b578063e30c397814610156578063f2fde38b146101515763f7d0e04b1461014c575f80fd5b6111ff565b611189565b611161565b61113c565b6110f9565b6110b9565b611073565b611022565b610ed0565b610cb0565b6108e8565b6108a8565b610883565b6107ca565b6106e5565b6106b8565b610691565b61060c565b6105a9565b610559565b61052e565b610489565b6103a1565b610373565b61034f565b61032b565b610265565b610203565b6001600160a01b031690565b6001600160a01b038116036101f557565b5f80fd5b801515036101f557565b346101f55760403660031901126101f557600435610220816101e4565b6024359061022d826101f9565b610235611994565b60018060a01b03165f52600260205260405f209060ff8019835416911515161790555f80f35b5f9103126101f557565b346101f5575f3660031901126101f557602060405160328152f35b60a09060231901126101f557602490565b60a09060031901126101f557600490565b9181601f840112156101f5578235916001600160401b0383116101f557602083818601950101116101f557565b906101606003198301126101f5576004356102e9816101e4565b9160a06023198201126101f557602491608060c3198301126101f55760c49161014435906001600160401b0382116101f557610327916004016102a2565b9091565b346101f557610339366102cf565b5050505050602060405163021d0ee760e41b8152f35b346101f55761035d366102cf565b5050505050602060405163259982e560e01b8152f35b346101f5575f3660031901126101f5576020600454604051908152f35b60609060c31901126101f55760c490565b346101f5576101403660031901126101f5576004356103bf816101e4565b6103c836610280565b906103d236610390565b610124356001600160401b0381116101f5576103f29036906004016102a2565b50507f00000000000000000000000000000000000000000000000000000000000000006001600160a01b0316330361047b5761047792610439926104346119a7565b6112fa565b60015f80516020611b7683398151915255604080516001600160e01b03199094168452602084019290925262ffffff16908201529081906060820190565b0390f35b6282b42960e81b5f5260045ffd5b346101f5575f3660031901126101f5576040517f00000000000000000000000000000000000000000000000000000000000000006001600160a01b03168152602090f35b906101a06003198301126101f5576004356104e7816101e4565b9160a06023198201126101f557602491608060c48303126101f55760c4916101443591610164359161018435906001600160401b0382116101f557610327916004016102a2565b346101f55761053c366104cd565b5050505050505060408051633615df3f60e11b81525f6020820152f35b346101f5576101003660031901126101f5576105766004356101e4565b61057f36610280565b5061058b60c4356101e4565b60e4358060020b036101f557604051636fe7e6eb60e01b8152602090f35b346101f5575f3660031901126101f5576105c1611994565b600180546001600160a01b03199081169091555f80549182168155906001600160a01b03167f8be0079c531659141344cd1fd0a4f28419497f9722a3daafe3b4186f6b6457e08280a3005b346101f5575f3660031901126101f557600154336001600160a01b039091160361067e57600180546001600160a01b03199081169091555f805433928116831782556001600160a01b0316907f8be0079c531659141344cd1fd0a4f28419497f9722a3daafe3b4186f6b6457e09080a3005b63118cdaa760e01b5f523360045260245ffd5b346101f5575f3660031901126101f5575f546040516001600160a01b039091168152602090f35b346101f5576106c6366104cd565b50505050505050604080516327c18fbf60e21b81525f6020820152f35b565b346101f55760203660031901126101f5576004355f52600560205260405f208054610477600183015492610729610722856001600160801b031690565b9460801c90565b60028201546003830154600490930154604080516001600160a01b03888116825260a089811c6001600160401b0316602084015260e08a811c60ff90811615159585019590955260e88b901c85161515606085015260f09a909a1c909316151560808301526001600160801b03998a16928201929092529390971660c084015294820152908416610100820152929091166101208301528190610140820190565b346101f5576101603660031901126101f5576107e76004356101e4565b6107f036610280565b506107fa36610390565b50610144356001600160401b0381116101f55761081b9036906004016102a2565b50506040805163b47b2fb160e01b81525f6020820152f35b6101206003198201126101f55760043561084c816101e4565b9160a06023198301126101f55760249160c4359160e4359161010435906001600160401b0382116101f557610327916004016102a2565b346101f55761089136610833565b5050505050506020604051635b54587d60e11b8152f35b346101f55760203660031901126101f5576004356108c5816101e4565b60018060a01b03165f526002602052602060ff60405f2054166040519015158152f35b346101f55760603660031901126101f55760243560443560043561090b826101e4565b335f52600260205260ff60405f20541615610c75576109286119a7565b61093a815f52600560205260405f2090565b80549060ff60e883901c161561094f565b1590565b610c665761097160a083901c6001600160401b03165b6001600160401b031690565b4211610c575760075483919061098f906001600160a01b03166101d8565b6001600160a01b038116151580610c3e575b610b5c575b50600290610a458487610a36610a0e6109c6610a579960ff9060e01c1690565b938415610b485760038701546001600160a01b0316945b15610b2d5760048701546001600160a01b0390811691610a2991165b91600189019286610a1a610a0e865460801c90565b6001600160801b031690565b926001600160a01b0316611b0e565b546001600160801b031690565b916001600160a01b0316611a91565b805460ff60e81b1916815501546119ed565b604051600181526001600160a01b0392909216917f289a525e2fe656ccb97ffd0dc6509e3dc75c8b482952235637d2d09f08db429290602090a3600754610aa6906001600160a01b03166101d8565b6001600160a01b038116610acd575b610acb60015f80516020611b7683398151915255565b005b803b156101f557604051631e01b53f60e11b8152915f918391829084908290610af990600483016116fa565b03925af18015610b2857610b0e575b80610ab5565b80610b1c5f610b229361129a565b8061025b565b5f610b08565b6112c0565b60038701546001600160a01b0390811691610a2991166109f9565b60048701546001600160a01b0316946109dd565b6040516304d3863d60e21b81529250602090839060049082905afa8015610b285784925f91610c1f575b506001600160a01b031680156109a6576040516233950960e01b815260048101889052919250602090829060249082905afa908115610b28575f91610bf0575b506001600160a01b03858116911603610be15782905f6109a6565b63b8dfc03960e01b5f5260045ffd5b610c12915060203d602011610c18575b610c0a818361129a565b8101906116e5565b5f610bc6565b503d610c00565b610c38915060203d602011610c1857610c0a818361129a565b5f610b86565b50335f9081526002602052604090205460ff16156109a1565b63506b27c560e11b5f5260045ffd5b631d4ecc5b60e01b5f5260045ffd5b6354a4cdb960e11b5f5260045ffd5b60c435906001600160801b03821682036101f557565b60e435906001600160801b03821682036101f557565b346101f5576101203660031901126101f557610ccb36610291565b60a435610cd7816101f9565b610cdf610c84565b610ce7610c9a565b6101043590610cf46119a7565b6001600160801b038316908115610ec157610d0e866119df565b9560045480968195610d1f83611783565b600455610d2c9042611791565b6001600160401b031690610d3f8461127c565b916020850192610d4e8461127c565b90610d5761179e565b338152926001600160401b0316602084015283151560408401526001606084015232331460808401526001600160801b038b1660a08401526001600160801b03881660c084015260e083018d90526001600160a01b03166101008301526001600160a01b0316610120820152610dd5845f52600560205260405f2090565b90610ddf916117ae565b5f1498610e337fd574d04cee604aaf67e088da6c397c04011b1ed900bdbb15d090bd2e673227a096610e4695610e41946104779d610eb25750610e219061127c565b309033906001600160a01b0316611b0e565b5f52600660205260405f2090565b611954565b610e65610e5b845f52600560205260405f2090565b5460f01c60ff1690565b6040805191151582526001600160801b03958616602083015291909416908401523392606090a3610ea260015f80516020611b7683398151915255565b6040519081529081906020820190565b610ebc915061127c565b610e21565b636c2b7e2d60e11b5f5260045ffd5b346101f55760c03660031901126101f557600435610eed36610280565b610ef56119a7565b610f07825f52600560205260405f2090565b90600454831015611013578154610f266001600160a01b0382166101d8565b330361047b57610f3a9060e81c60ff161590565b610c6657610f47816119df565b906002830154820361100457825460ff60e81b19168355610fb391610f6d9085906119ed565b610f9c835491610f818360ff9060e01c1690565b15610ff857610f8f9061127c565b916001600160a01b031690565b610a36610a0e60018601546001600160801b031690565b546001600160a01b0316907fc0362da6f2ff36b382b34aec0814f6b3cdf89f5ef282a1d1f114d0c0b036d5965f80a3610acb60015f80516020611b7683398151915255565b6020610f8f910161127c565b633aaca32d60e21b5f5260045ffd5b63d36d896560e01b5f5260045ffd5b346101f5575f3660031901126101f5576007546040516001600160a01b039091168152602090f35b805482101561105f575f5260205f2001905f90565b634e487b7160e01b5f52603260045260245ffd5b346101f55760403660031901126101f5576024356004355f52600660205260405f2080548210156101f5576020916110aa9161104a565b90549060031b1c604051908152f35b346101f55760203660031901126101f5576004356110d6816101e4565b60018060a01b03165f526003602052602060ff60405f2054166040519015158152f35b346101f55760e03660031901126101f5576111156004356101e4565b61111e36610280565b5061112a60c4356101e4565b604051636e4c1aa760e11b8152602090f35b346101f55761114a36610833565b505050505050602060405163e1b4af6960e01b8152f35b346101f5575f3660031901126101f5576001546040516001600160a01b039091168152602090f35b346101f55760203660031901126101f5576004356111a6816101e4565b6111ae611994565b60018060a01b0316806bffffffffffffffffffffffff60a01b600154161760015560018060a01b035f54167f38d16b8cac22d99fc7c124b9cd0de2d3fa1faef420bfe791d8c362d765e227005f80a3005b346101f55760203660031901126101f55760043561121c816101e4565b611224611994565b600780546001600160a01b0319166001600160a01b0392909216919091179055005b634e487b7160e01b5f52601160045260245ffd5b600160ff1b811461126a575f0390565b611246565b35611279816101f9565b90565b35611279816101e4565b634e487b7160e01b5f52604160045260245ffd5b90601f801991011681019081106001600160401b038211176112bb57604052565b611286565b6040513d5f823e3d90fd5b908160209103126101f5575190565b600f0b6f7fffffffffffffffffffffffffffffff19811461126a575f0390565b6020830135600160ff1b81146116d6575f8112156116c257610a0e61131e9161125a565b91611328816119df565b9061133b825f52600660205260405f2090565b948554603281105f146116b55792909594955b5f967f00000000000000000000000000000000000000000000000000000000000000006001600160a01b031692906001600160801b03165b8589106113a657506315d7892d60e21b985f985088975095505050505050565b6113bd6113b38a8a61104a565b90549060031b1c90565b956113d0875f52600560205260405f2090565b9889546113e461094b8260ff9060e81c1690565b8015611697575b6116885760e01c60ff166114066114018761126f565b151590565b9015151461167a5760018a019a611421610a0e8d5460801c90565b8410611663575050885460ff60e81b191689555061144b9291611446915086906119ed565b61126f565b1561163157611465602061145e8461127c565b930161127c565b915b611483611475885460801c90565b96546001600160a01b031690565b90823b156101f557604051630b0d9c0960e01b81526001600160a01b039182166004820152911660248201526001600160801b03861660448201525f8160648183865af18015610b285761161d575b50803b156101f557604051632961046560e21b81526001600160a01b0383166004820152905f8260248183855af18015610b28575f9360209361152a92611609575b5082610a36610a0e8b546001600160801b031690565b600460405180948193630476982d60e21b83525af18015610b28576115d0956001600160801b03946115be946115b9946115aa946115dd575b506040515f81526001600160a01b0392909216917f289a525e2fe656ccb97ffd0dc6509e3dc75c8b482952235637d2d09f08db429290602090a3546001600160801b031690565b6001600160801b0316600f0b90565b6112da565b6001600160801b0316911660801b1790565b6315d7892d60e21b915f90565b6115fd9060203d8111611602575b6115f5818361129a565b8101906112cb565b611563565b503d6115eb565b80610b1c876116179361129a565b5f611514565b80610b1c5f61162b9361129a565b5f6114d2565b908061164b611645602061165c940161127c565b9161127c565b6001600160a01b0391821692911690565b9190611467565b91995092965060019199505b019796949096611386565b92965097509760019061166f565b5092965097509760019061166f565b506116ae60a082901c6001600160401b0316610965565b42116113eb565b506032929095949561134e565b506315d7892d60e21b935f93508392509050565b630590fb9f60e01b5f5260045ffd5b908160209103126101f55751611279816101e4565b91908252606460208301525f6040830152610100606083015260096101008301526832bc32b1baba34b7b760b91b61012083015261014060808301525f60e061177e61176d6040610140870160078152667375636365737360c81b60208201520186810360a08801526020905f81520190565b85810360c08701525f815260200190565b930152565b5f19811461126a5760010190565b9190820180921161126a57565b604051906106e36101408361129a565b815181546001600160a01b0319166001600160a01b039091161781556106e39160049061193390610120906118186117f060208301516001600160401b031690565b865467ffffffffffffffff60a01b191660a09190911b67ffffffffffffffff60a01b16178655565b6118426118286040830151151590565b865460ff60e01b191690151560e01b60ff60e01b16178655565b61186c6118526060830151151590565b865460ff60e81b191690151560e81b60ff60e81b16178655565b61189661187c6080830151151590565b865460ff60f01b191690151560f01b60ff60f01b16178655565b6118fe600186016118d06118b460a08501516001600160801b031690565b82546001600160801b0319166001600160801b03909116178255565b60c08301516001600160801b031681546001600160801b031660809190911b6001600160801b031916179055565b60e081015160028601556101008101516003860180546001600160a01b0319166001600160a01b039283161790559101511690565b910180546001600160a01b0319166001600160a01b03909216919091179055565b90815491680100000000000000008310156112bb578261197c9160016106e39501815561104a565b90919082549060031b91821b915f19901b1916179055565b5f546001600160a01b0316330361067e57565b60025f80516020611b7683398151915254146119d05760025f80516020611b7683398151915255565b633ee5aeb560e01b5f5260045ffd5b60a090816040519182372090565b5f52600660205260405f205f5b815480821015611a8b5783611a0f838561104a565b90549060031b1c14611a2457506001016119fa565b9192505f19820191821161126a5761197c611a42611a50938561104a565b90549060031b1c918461104a565b80548015611a77575f190190611a66828261104a565b8154905f199060031b1b1916905555565b634e487b7160e01b5f52603160045260245ffd5b50505050565b916040519163a9059cbb60e01b5f5260018060a01b031660045260245260205f60448180865af160015f5114811615611aef575b604091909152155b611ad45750565b635274afe760e01b5f526001600160a01b031660045260245ffd5b6001811516611b05573d15833b15151616611ac5565b503d5f823e3d90fd5b6040516323b872dd60e01b5f9081526001600160a01b039384166004529290931660245260449390935260209060648180865af160015f5114811615611b5f575b6040919091525f60605215611acd565b6001811516611b05573d15833b15151616611b4f56fe9b779b17422d0df92223018b32b4d1fa46e071723d6817e2486d003becc55f00a2646970667358221220e0ec265e654cc430bb5a20209426af1ed27abaded37fe8168a4e99aabf2e3fce64736f6c634300081a0033","linkReferences":{}},"methodIdentifiers":{"MAX_ITERATIONS()":"1d92c26d","POOL_MANAGER()":"62308e85","acceptOwnership()":"79ba5097","afterAddLiquidity(address,(address,address,uint24,int24,address),(int24,int24,int256,bytes32),int256,int256,bytes)":"9f063efc","afterDonate(address,(address,address,uint24,int24,address),uint256,uint256,bytes)":"e1b4af69","afterInitialize(address,(address,address,uint24,int24,address),uint160,int24)":"6fe7e6eb","afterRemoveLiquidity(address,(address,address,uint24,int24,address),(int24,int24,int256,bytes32),int256,int256,bytes)":"6c2bbe7e","afterSwap(address,(address,address,uint24,int24,address),(bool,int256,uint160),int256,bytes)":"b47b2fb1","allowedBots(address)":"d3d368c0","beforeAddLiquidity(address,(address,address,uint24,int24,address),(int24,int24,int256,bytes32),bytes)":"259982e5","beforeDonate(address,(address,address,uint24,int24,address),uint256,uint256,bytes)":"b6a8b0fa","beforeInitialize(address,(address,address,uint24,int24,address),uint160)":"dc98354e","beforeRemoveLiquidity(address,(address,address,uint24,int24,address),(int24,int24,int256,bytes32),bytes)":"21d0ee70","beforeSwap(address,(address,address,uint24,int24,address),(bool,int256,uint160),bytes)":"575e24b4","cancelOrder(uint256,(address,address,uint24,int24,address))":"c3e0858b","isSentinel(address)":"ba03a75f","nextOrderId()":"2a58b330","orders(uint256)":"a85c38ef","owner()":"8da5cb5b","pendingOwner()":"e30c3978","poolOrders(bytes32,uint256)":"d10c151d","postOrder((address,address,uint24,int24,address),bool,uint128,uint128,uint256)":"c0ffd5e3","renounceOwnership()":"715018a6","reputation()":"c52164c6","setReputation(address)":"f7d0e04b","setSentinel(address,bool)":"00796bf7","transferOwnership(address)":"f2fde38b","triggerOrder(uint256,uint256,address)":"bf8d3a63"},"id":62}