{"abi":[{"type":"constructor","inputs":[],"stateMutability":"nonpayable"},{"type":"function","name":"approve","inputs":[{"name":"to","type":"address","internalType":"address"},{"name":"tokenId","type":"uint256","internalType":"uint256"}],"outputs":[],"stateMutability":"nonpayable"},{"type":"function","name":"balanceOf","inputs":[{"name":"owner","type":"address","internalType":"address"}],"outputs":[{"name":"","type":"uint256","internalType":"uint256"}],"stateMutability":"view"},{"type":"function","name":"getAgentWallet","inputs":[{"name":"agentId","type":"uint256","internalType":"uint256"}],"outputs":[{"name":"","type":"address","internalType":"address"}],"stateMutability":"view"},{"type":"function","name":"getApproved","inputs":[{"name":"tokenId","type":"uint256","internalType":"uint256"}],"outputs":[{"name":"","type":"address","internalType":"address"}],"stateMutability":"view"},{"type":"function","name":"getMetadata","inputs":[{"name":"agentId","type":"uint256","internalType":"uint256"},{"name":"metadataKey","type":"string","internalType":"string"}],"outputs":[{"name":"","type":"bytes","internalType":"bytes"}],"stateMutability":"view"},{"type":"function","name":"isApprovedForAll","inputs":[{"name":"owner","type":"address","internalType":"address"},{"name":"operator","type":"address","internalType":"address"}],"outputs":[{"name":"","type":"bool","internalType":"bool"}],"stateMutability":"view"},{"type":"function","name":"name","inputs":[],"outputs":[{"name":"","type":"string","internalType":"string"}],"stateMutability":"view"},{"type":"function","name":"nextAgentId","inputs":[],"outputs":[{"name":"","type":"uint256","internalType":"uint256"}],"stateMutability":"view"},{"type":"function","name":"owner","inputs":[],"outputs":[{"name":"","type":"address","internalType":"address"}],"stateMutability":"view"},{"type":"function","name":"ownerOf","inputs":[{"name":"tokenId","type":"uint256","internalType":"uint256"}],"outputs":[{"name":"","type":"address","internalType":"address"}],"stateMutability":"view"},{"type":"function","name":"register","inputs":[],"outputs":[{"name":"agentId","type":"uint256","internalType":"uint256"}],"stateMutability":"nonpayable"},{"type":"function","name":"register","inputs":[{"name":"agentURI","type":"string","internalType":"string"},{"name":"metadata","type":"tuple[]","internalType":"struct AgentRegistry.MetadataEntry[]","components":[{"name":"metadataKey","type":"string","internalType":"string"},{"name":"metadataValue","type":"bytes","internalType":"bytes"}]}],"outputs":[{"name":"agentId","type":"uint256","internalType":"uint256"}],"stateMutability":"nonpayable"},{"type":"function","name":"register","inputs":[{"name":"agentURI","type":"string","internalType":"string"}],"outputs":[{"name":"agentId","type":"uint256","internalType":"uint256"}],"stateMutability":"nonpayable"},{"type":"function","name":"renounceOwnership","inputs":[],"outputs":[],"stateMutability":"nonpayable"},{"type":"function","name":"safeTransferFrom","inputs":[{"name":"from","type":"address","internalType":"address"},{"name":"to","type":"address","internalType":"address"},{"name":"tokenId","type":"uint256","internalType":"uint256"}],"outputs":[],"stateMutability":"nonpayable"},{"type":"function","name":"safeTransferFrom","inputs":[{"name":"from","type":"address","internalType":"address"},{"name":"to","type":"address","internalType":"address"},{"name":"tokenId","type":"uint256","internalType":"uint256"},{"name":"data","type":"bytes","internalType":"bytes"}],"outputs":[],"stateMutability":"nonpayable"},{"type":"function","name":"setAgentURI","inputs":[{"name":"agentId","type":"uint256","internalType":"uint256"},{"name":"newURI","type":"string","internalType":"string"}],"outputs":[],"stateMutability":"nonpayable"},{"type":"function","name":"setAgentWallet","inputs":[{"name":"agentId","type":"uint256","internalType":"uint256"},{"name":"newWallet","type":"address","internalType":"address"},{"name":"deadline","type":"uint256","internalType":"uint256"},{"name":"signature","type":"bytes","internalType":"bytes"}],"outputs":[],"stateMutability":"nonpayable"},{"type":"function","name":"setApprovalForAll","inputs":[{"name":"operator","type":"address","internalType":"address"},{"name":"approved","type":"bool","internalType":"bool"}],"outputs":[],"stateMutability":"nonpayable"},{"type":"function","name":"setMetadata","inputs":[{"name":"agentId","type":"uint256","internalType":"uint256"},{"name":"metadataKey","type":"string","internalType":"string"},{"name":"metadataValue","type":"bytes","internalType":"bytes"}],"outputs":[],"stateMutability":"nonpayable"},{"type":"function","name":"supportsInterface","inputs":[{"name":"interfaceId","type":"bytes4","internalType":"bytes4"}],"outputs":[{"name":"","type":"bool","internalType":"bool"}],"stateMutability":"view"},{"type":"function","name":"symbol","inputs":[],"outputs":[{"name":"","type":"string","internalType":"string"}],"stateMutability":"view"},{"type":"function","name":"tokenURI","inputs":[{"name":"tokenId","type":"uint256","internalType":"uint256"}],"outputs":[{"name":"","type":"string","internalType":"string"}],"stateMutability":"view"},{"type":"function","name":"transferFrom","inputs":[{"name":"from","type":"address","internalType":"address"},{"name":"to","type":"address","internalType":"address"},{"name":"tokenId","type":"uint256","internalType":"uint256"}],"outputs":[],"stateMutability":"nonpayable"},{"type":"function","name":"transferOwnership","inputs":[{"name":"newOwner","type":"address","internalType":"address"}],"outputs":[],"stateMutability":"nonpayable"},{"type":"event","name":"AgentWalletSet","inputs":[{"name":"agentId","type":"uint256","indexed":true,"internalType":"uint256"},{"name":"newWallet","type":"address","indexed":true,"internalType":"address"}],"anonymous":false},{"type":"event","name":"Approval","inputs":[{"name":"owner","type":"address","indexed":true,"internalType":"address"},{"name":"approved","type":"address","indexed":true,"internalType":"address"},{"name":"tokenId","type":"uint256","indexed":true,"internalType":"uint256"}],"anonymous":false},{"type":"event","name":"ApprovalForAll","inputs":[{"name":"owner","type":"address","indexed":true,"internalType":"address"},{"name":"operator","type":"address","indexed":true,"internalType":"address"},{"name":"approved","type":"bool","indexed":false,"internalType":"bool"}],"anonymous":false},{"type":"event","name":"BatchMetadataUpdate","inputs":[{"name":"_fromTokenId","type":"uint256","indexed":false,"internalType":"uint256"},{"name":"_toTokenId","type":"uint256","indexed":false,"internalType":"uint256"}],"anonymous":false},{"type":"event","name":"MetadataSet","inputs":[{"name":"agentId","type":"uint256","indexed":true,"internalType":"uint256"},{"name":"indexedMetadataKey","type":"string","indexed":true,"internalType":"string"},{"name":"metadataKey","type":"string","indexed":false,"internalType":"string"},{"name":"metadataValue","type":"bytes","indexed":false,"internalType":"bytes"}],"anonymous":false},{"type":"event","name":"MetadataUpdate","inputs":[{"name":"_tokenId","type":"uint256","indexed":false,"internalType":"uint256"}],"anonymous":false},{"type":"event","name":"OwnershipTransferred","inputs":[{"name":"previousOwner","type":"address","indexed":true,"internalType":"address"},{"name":"newOwner","type":"address","indexed":true,"internalType":"address"}],"anonymous":false},{"type":"event","name":"Registered","inputs":[{"name":"agentId","type":"uint256","indexed":true,"internalType":"uint256"},{"name":"agentURI","type":"string","indexed":false,"internalType":"string"},{"name":"owner","type":"address","indexed":true,"internalType":"address"}],"anonymous":false},{"type":"event","name":"Transfer","inputs":[{"name":"from","type":"address","indexed":true,"internalType":"address"},{"name":"to","type":"address","indexed":true,"internalType":"address"},{"name":"tokenId","type":"uint256","indexed":true,"internalType":"uint256"}],"anonymous":false},{"type":"event","name":"URIUpdated","inputs":[{"name":"agentId","type":"uint256","indexed":true,"internalType":"uint256"},{"name":"newURI","type":"string","indexed":false,"internalType":"string"},{"name":"updatedBy","type":"address","indexed":true,"internalType":"address"}],"anonymous":false},{"type":"error","name":"ECDSAInvalidSignature","inputs":[]},{"type":"error","name":"ECDSAInvalidSignatureLength","inputs":[{"name":"length","type":"uint256","internalType":"uint256"}]},{"type":"error","name":"ECDSAInvalidSignatureS","inputs":[{"name":"s","type":"bytes32","internalType":"bytes32"}]},{"type":"error","name":"ERC721IncorrectOwner","inputs":[{"name":"sender","type":"address","internalType":"address"},{"name":"tokenId","type":"uint256","internalType":"uint256"},{"name":"owner","type":"address","internalType":"address"}]},{"type":"error","name":"ERC721InsufficientApproval","inputs":[{"name":"operator","type":"address","internalType":"address"},{"name":"tokenId","type":"uint256","internalType":"uint256"}]},{"type":"error","name":"ERC721InvalidApprover","inputs":[{"name":"approver","type":"address","internalType":"address"}]},{"type":"error","name":"ERC721InvalidOperator","inputs":[{"name":"operator","type":"address","internalType":"address"}]},{"type":"error","name":"ERC721InvalidOwner","inputs":[{"name":"owner","type":"address","internalType":"address"}]},{"type":"error","name":"ERC721InvalidReceiver","inputs":[{"name":"receiver","type":"address","internalType":"address"}]},{"type":"error","name":"ERC721InvalidSender","inputs":[{"name":"sender","type":"address","internalType":"address"}]},{"type":"error","name":"ERC721NonexistentToken","inputs":[{"name":"tokenId","type":"uint256","internalType":"uint256"}]},{"type":"error","name":"OwnableInvalidOwner","inputs":[{"name":"owner","type":"address","internalType":"address"}]},{"type":"error","name":"OwnableUnauthorizedAccount","inputs":[{"name":"account","type":"address","internalType":"address"}]}],"bytecode":{"object":"0x60806040523461038357604080519081016001600160401b03811182821017610299576040908152601882527f54727573746c657373204167656e74204964656e746974790000000000000000602083015280519081016001600160401b0381118282101761029957604052600381526254414960e81b602082015281516001600160401b038111610299575f54600181811c91168015610379575b602082101461027b57601f8111610317575b50602092601f82116001146102b857928192935f926102ad575b50508160011b915f199060031b1c1916175f555b80516001600160401b03811161029957600154600181811c9116801561028f575b602082101461027b57601f8111610218575b50602091601f82116001146101b8579181925f926101ad575b50508160011b915f199060031b1c1916176001555b331561019a5760078054336001600160a01b03198216811790925560405191906001600160a01b03167f8be0079c531659141344cd1fd0a4f28419497f9722a3daafe3b4186f6b6457e05f80a36001600855611cae90816103888239f35b631e4fbdf760e01b5f525f60045260245ffd5b015190505f80610127565b601f1982169260015f52805f20915f5b858110610200575083600195106101e8575b505050811b0160015561013c565b01515f1960f88460031b161c191690555f80806101da565b919260206001819286850151815501940192016101c8565b60015f527fb10e2d527612073b26eecdfd717e6a320cf44b4afac2b0732d9fcbe2b7fa0cf6601f830160051c81019160208410610271575b601f0160051c01905b818110610266575061010e565b5f8155600101610259565b9091508190610250565b634e487b7160e01b5f52602260045260245ffd5b90607f16906100fc565b634e487b7160e01b5f52604160045260245ffd5b015190505f806100c7565b601f198216935f8052805f20915f5b8681106102ff57508360019596106102e7575b505050811b015f556100db565b01515f1960f88460031b161c191690555f80806102da565b919260206001819286850151815501940192016102c7565b5f80527f290decd9548b62a8d60345a988386fc84ba6bc95484008f6362f93160ef3e563601f830160051c8101916020841061036f575b601f0160051c01905b81811061036457506100ad565b5f8155600101610357565b909150819061034e565b90607f169061009b565b5f80fdfe6080806040526004361015610012575f80fd5b5f3560e01c90816233950914610e365750806301ffc9a714610dae57806306fdde0314610d0c578063081812fc14610cee578063095ea7b314610c045780630af28bd314610b835780631aa3a00814610b5957806323b872dd14610b425780632d1ef5ae1461092c57806330efc4981461090f57806342842e0e146108e0578063466648da146107435780636352211e1461071357806370a08231146106c2578063715018a6146106675780638da5cb5b1461063f5780638ea422861461054c57806395d89b4114610482578063a22cb465146103ce578063b88d4fde14610361578063c87b56dd14610342578063cb4799f21461025b578063e985e9c514610204578063f2c298be146101b85763f2fde38b1461012e575f80fd5b346101b45760203660031901126101b457610147610e88565b61014f6119c0565b6001600160a01b031680156101a157600780546001600160a01b0319811683179091556001600160a01b03167f8be0079c531659141344cd1fd0a4f28419497f9722a3daafe3b4186f6b6457e05f80a3005b631e4fbdf760e01b5f525f60045260245ffd5b5f80fd5b346101b45760203660031901126101b4576004356001600160401b0381116101b4576101fc6101f76101f06020933690600401610eb4565b3691610f9e565b611590565b604051908152f35b346101b45760403660031901126101b45761021d610e88565b610225610e9e565b9060018060a01b03165f52600560205260405f209060018060a01b03165f52602052602060ff60405f2054166040519015158152f35b346101b457602061026b36610ee1565b92915f526009825260405f20836040519485938437820190815203019020604051905f9080549061029b82610fd4565b808552916001811690811561031b57506001146102db575b6102d7846102c381860382610f4e565b604051918291602083526020830190610e64565b0390f35b5f90815260208120939250905b808210610301575090915081016020016102c3826102b3565b9192600181602092548385880101520191019092916102e8565b60ff191660208087019190915292151560051b850190920192506102c391508390506102b3565b346101b45760203660031901126101b4576102d76102c36004356112a7565b346101b45760803660031901126101b45761037a610e88565b610382610e9e565b90604435606435926001600160401b0384116101b457366023850112156101b4576103ba6103cc943690602481600401359101610f9e565b926103c683838361106e565b336119e7565b005b346101b45760403660031901126101b4576103e7610e88565b602435908115158092036101b457331561046f576001600160a01b031690811561045c57335f52600560205260405f20825f5260205260405f2060ff1981541660ff83161790556040519081527f17307eab39ab6107e8899845ad3d59bd9653f200f220920489ca2b5937696c3160203392a3005b50630b61174360e31b5f5260045260245ffd5b63a9fbf51f60e01b5f525f60045260245ffd5b346101b4575f3660031901126101b4576040515f6001546104a281610fd4565b808452906001811690811561052857506001146104ca575b6102d7836102c381850382610f4e565b91905060015f527fb10e2d527612073b26eecdfd717e6a320cf44b4afac2b0732d9fcbe2b7fa0cf6915f905b80821061050e575090915081016020016102c36104ba565b9192600181602092548385880101520191019092916104f6565b60ff191660208086019190915291151560051b840190910191506102c390506104ba565b346101b45760403660031901126101b4576004356001600160401b0381116101b45761057c903690600401610eb4565b602435916001600160401b0383116101b457366023840112156101b4578260040135916001600160401b0383116101b4576024840193602436918560051b0101116101b4576105d0916101f7913691610f9e565b915f5b8281106105e557602084604051908152f35b806106396106326106026105fc600195888861123f565b80611275565b61062a610620610616878b8b97969761123f565b6020810190611275565b9490923691610f9e565b923691610f9e565b908761186a565b016105d3565b346101b4575f3660031901126101b4576007546040516001600160a01b039091168152602090f35b346101b4575f3660031901126101b45761067f6119c0565b600780546001600160a01b031981169091555f906001600160a01b03167f8be0079c531659141344cd1fd0a4f28419497f9722a3daafe3b4186f6b6457e08280a3005b346101b45760203660031901126101b4576001600160a01b036106e3610e88565b168015610700575f526003602052602060405f2054604051908152f35b6322718ad960e21b5f525f60045260245ffd5b346101b45760203660031901126101b45760206107316004356113e6565b6040516001600160a01b039091168152f35b346101b45760603660031901126101b4576004356024356001600160401b0381116101b457610776903690600401610eb4565b91906044356001600160401b0381116101b457610797903690600401610eb4565b91906107a2846113e6565b6001600160a01b0316331480156108c6575b8015610892575b1561085c576107cb368684610f9e565b60208151910120600b60206040516107e4604082610f4e565b828152016a1859d95b9d15d85b1b195d60aa1b815220146108175761062a610811926103cc963691610f9e565b9161186a565b60405162461bcd60e51b815260206004820152601f60248201527f43616e6e6f7420736574206167656e7457616c6c6574206469726563746c79006044820152606490fd5b60405162461bcd60e51b815260206004820152600e60248201526d139bdd08185d5d1a1bdc9a5e995960921b6044820152606490fd5b506001600160a01b036108a4856113e6565b165f90815260056020908152604080832033845290915290205460ff166107bb565b50336001600160a01b036108d98661100c565b16146107b4565b346101b4576103cc6108f136610f14565b9060405192610901602085610f4e565b5f84526103c683838361106e565b346101b4575f3660031901126101b4576020600854604051908152f35b346101b45760803660031901126101b457600435610948610e9e565b90604435916064356001600160401b0381116101b45761096c903690600401610eb4565b90610989610979856113e6565b6001600160a01b03163314611030565b844211610b0957610a2c91610a1d610a2392604051602081019088825260018060a01b038816998a986001600160601b03199060601b16604083015260548201524660748201523060601b6094820152608881526109e860a882610f4e565b5190207f19457468657265756d205369676e6564204d6573736167653a0a3332000000005f52601c52603c5f20923691610f9e565b90611b1d565b90929192611b57565b6001600160a01b031603610ad057805f52600a60205260405f20826001600160601b0360a01b8254161790556040519180827fc1b62bacf2a2f4363c2190e00f2370f3b563001a0c56c73eae69619e58e9624c5f80a3602083015260208252610a96604083610f4e565b5f80516020611c59833981519152610acb600b6040516a1859d95b9d15d85b1b195d60aa1b8152209360405191829182611209565b0390a3005b60405162461bcd60e51b8152602060048201526011602482015270496e76616c6964207369676e617475726560781b6044820152606490fd5b60405162461bcd60e51b815260206004820152601160248201527014da59db985d1d5c9948195e1c1a5c9959607a1b6044820152606490fd5b346101b4576103cc610b5336610f14565b9161106e565b346101b4575f3660031901126101b45760206101fc604051610b7b8382610f4e565b5f8152611590565b346101b4577f3a2c7fffc2cba7582c690e3b82c453ea02a308326a98a3ad7576c606336409fb610bb236610ee1565b9290610bc0610979846113e6565b610bd4610bce368684610f9e565b84611469565b83604051916020835281602084015260408301375f604085830101526040813395601f80199101168101030190a3005b346101b45760403660031901126101b457610c1d610e88565b602435610c29816113e6565b33151580610cdb575b80610cae575b610c9b5781906001600160a01b0384811691167f8c5be1e5ebec7d5bd14f71427d1e84f3dd0314c0f7b2291e5b200ac8c7c3b9255f80a45f90815260046020526040902080546001600160a01b0319166001600160a01b03909216919091179055005b63a9fbf51f60e01b5f523360045260245ffd5b506001600160a01b0381165f90815260056020908152604080832033845290915290205460ff1615610c38565b506001600160a01b038116331415610c32565b346101b45760203660031901126101b457602061073160043561100c565b346101b4575f3660031901126101b4576040515f8054610d2b81610fd4565b80845290600181169081156105285750600114610d52576102d7836102c381850382610f4e565b5f8080527f290decd9548b62a8d60345a988386fc84ba6bc95484008f6362f93160ef3e563939250905b808210610d94575090915081016020016102c36104ba565b919260018160209254838588010152019101909291610d7c565b346101b45760203660031901126101b45760043563ffffffff60e01b81168091036101b457602090632483248360e11b8114908115610df3575b506040519015158152f35b6380ac58cd60e01b811491508115610e25575b8115610e14575b5082610de8565b6301ffc9a760e01b14905082610e0d565b635b5e139f60e01b81149150610e06565b346101b45760203660031901126101b4576020906004355f52600a825260018060a01b0360405f2054168152f35b805180835260209291819084018484015e5f828201840152601f01601f1916010190565b600435906001600160a01b03821682036101b457565b602435906001600160a01b03821682036101b457565b9181601f840112156101b4578235916001600160401b0383116101b457602083818601950101116101b457565b9060406003198301126101b45760043591602435906001600160401b0382116101b457610f1091600401610eb4565b9091565b60609060031901126101b4576004356001600160a01b03811681036101b457906024356001600160a01b03811681036101b4579060443590565b90601f801991011681019081106001600160401b03821117610f6f57604052565b634e487b7160e01b5f52604160045260245ffd5b6001600160401b038111610f6f57601f01601f191660200190565b929192610faa82610f83565b91610fb86040519384610f4e565b8294818452818301116101b4578281602093845f960137010152565b90600182811c92168015611002575b6020831014610fee57565b634e487b7160e01b5f52602260045260245ffd5b91607f1691610fe3565b611015816113e6565b505f908152600460205260409020546001600160a01b031690565b1561103757565b60405162461bcd60e51b815260206004820152600f60248201526e2737ba1030b3b2b73a1037bbb732b960891b6044820152606490fd5b6001600160a01b03909116919082156111f6575f828152600260205260409020546001600160a01b031692829033151580611161575b508461112e575b805f52600360205260405f2060018154019055815f52600260205260405f20816001600160601b0360a01b825416179055847fddf252ad1be2c89b69c2b068fc378daa952ba7f163c4a11628f55a4df523b3ef5f80a46001600160a01b031680830361111657505050565b6364283d7b60e01b5f5260045260245260445260645ffd5b5f82815260046020526040902080546001600160a01b0319169055845f52600360205260405f205f1981540190556110ab565b909150806111a5575b156111775782905f6110a4565b828461118f57637e27328960e01b5f5260045260245ffd5b63177e802f60e01b5f523360045260245260445ffd5b5033841480156111d4575b8061116a57505f838152600460205260409020546001600160a01b0316331461116a565b505f84815260056020908152604080832033845290915290205460ff166111b0565b633250574960e11b5f525f60045260245ffd5b90608061123c9260408152600b60408201526a1859d95b9d15d85b1b195d60aa1b60608201528160208201520190610e64565b90565b91908110156112615760051b81013590603e19813603018212156101b4570190565b634e487b7160e01b5f52603260045260245ffd5b903590601e19813603018212156101b457018035906001600160401b0382116101b4576020019181360383136101b457565b6112b0816113e6565b506020906040516112c18382610f4e565b5f8152815f526006835260405f206040515f91818154936112e185610fd4565b9283835288830195896001821691825f146113c857505060011461138c575b5061130d92500382610f4e565b82511561138457908185925161134d575050505061132a906113e6565b505f6040516113398382610f4e565b526113476040519182610f4e565b5f815290565b61123c94506040519584879551918291018587015e840190838201905f8252519283915e01015f815203601f198101835282610f4e565b935050505090565b9150505f528186805f205f905b8482106113af575061130d93508201015f611300565b6001919350805483858801015201910187908492611399565b60ff1916885261130d95151560051b85010192505f91506113009050565b5f818152600260205260409020546001600160a01b0316908115611408575090565b637e27328960e01b5f5260045260245ffd5b601f821161142757505050565b5f5260205f20906020601f840160051c8301931061145f575b601f0160051c01905b818110611454575050565b5f8155600101611449565b9091508190611440565b919091805f52600660205260405f2083516001600160401b038111610f6f5761149c816114968454610fd4565b8461141a565b6020601f8211600114611508578160209493926114f1927ff8e1a15aba9398e019f0b49df1a4fde98ee17ae345cb5f6b5e2c27f5033e8ce797985f926114fd575b50508160011b915f199060031b1c19161790565b90555b604051908152a1565b015190505f806114dd565b601f19821695835f52815f20965f5b818110611578575096600192849260209796957ff8e1a15aba9398e019f0b49df1a4fde98ee17ae345cb5f6b5e2c27f5033e8ce7999a10611560575b505050811b0190556114f4565b01515f1960f88460031b161c191690555f8080611553565b83830151895560019098019760209384019301611517565b60085491905f1983146118565760018301600855826020916040516115b58482610f4e565b5f815233156111f6575f8381526002855260409020546001600160a01b03168015159081611825575b335f8181526003885260408082208054600101905587825260028952812080546001600160a01b0319168317905586919083907fddf252ad1be2c89b69c2b068fc378daa952ba7f163c4a11628f55a4df523b3ef9080a45061181257333b6116fd575b506116f8816116717fca52e62c367d81bb2e328eb795f7c7ba24afb478408a26c0e201d155c449bc4a9385611469565b835f52600a855260405f2060018060a01b0333166001600160601b0360a01b82541617905560405133868201528581526116ac604082610f4e565b845f80516020611c598339815191526116e2600b6040516a1859d95b9d15d85b1b195d60aa1b8152209360405191829182611209565b0390a36040519182918683523396830190610e64565b0390a3565b8361173a916040979695975180938192630a85bd0160e11b83523360048401525f6024840152876044840152608060648401526084830190610e64565b03815f335af15f91816117d2575b5061179c57853d15611794573d9061175f82610f83565b9161176d6040519384610f4e565b82523d5f8284013e5b8151918261179157633250574960e11b5f523360045260245ffd5b01fd5b606090611776565b939492936001600160e01b03191663757a42ff60e11b016117bf576116f8611641565b633250574960e11b5f523360045260245ffd5b9091508681813d831161180b575b6117ea8183610f4e565b810103126101b457516001600160e01b0319811681036101b457905f611748565b503d6117e0565b6339e3563760e11b5f525f60045260245ffd5b5f8581526004602052604080822080546001600160a01b031916905582825260038852902080545f190190556115de565b634e487b7160e01b5f52601160045260245ffd5b92919092805f52600960205260405f209360405160208183519782850198808a845e820190815203019020948351956001600160401b038711610f6f576118bb876118b58354610fd4565b8361141a565b602096601f811160011461194757916116f8916119038461192e96955f80516020611c5983398151915298999a9b5f9161193c575b508160011b915f199060031b1c19161790565b90555b604051809184518091835e81015f815203902095604051938493604085526040850190610e64565b908382036020850152610e64565b90508a01515f6118f0565b601f198116825f52885f20905f5b8181106119a85750826116f894925f80516020611c5983398151915298999a9b61192e98979560019410611990575b5050811b019055611906565b8b01515f1960f88460031b161c191690555f80611984565b888b0151835560209a8b019a60019093019201611955565b6007546001600160a01b031633036119d457565b63118cdaa760e01b5f523360045260245ffd5b823b6119f5575b5050505050565b604051630a85bd0160e11b81526001600160a01b039182166004820152918116602483015260448201939093526080606482015291169160209082908190611a41906084830190610e64565b03815f865af15f9181611ad8575b50611aa457503d15611a9d573d611a6581610f83565b90611a736040519283610f4e565b81523d5f602083013e5b80519081611a985782633250574960e11b5f5260045260245ffd5b602001fd5b6060611a7d565b6001600160e01b03191663757a42ff60e11b01611ac657505f808080806119ee565b633250574960e11b5f5260045260245ffd5b9091506020813d602011611b15575b81611af460209383610f4e565b810103126101b457516001600160e01b0319811681036101b457905f611a4f565b3d9150611ae7565b8151919060418303611b4d57611b469250602082015190606060408401519301515f1a90611bcb565b9192909190565b50505f9160029190565b6004811015611bb75780611b69575050565b60018103611b805763f645eedf60e01b5f5260045ffd5b60028103611b9b575063fce698f760e01b5f5260045260245ffd5b600314611ba55750565b6335e2f38360e21b5f5260045260245ffd5b634e487b7160e01b5f52602160045260245ffd5b91907f7fffffffffffffffffffffffffffffff5d576e7357a4501ddfe92f46681b20a08411611c4d579160209360809260ff5f9560405194855216868401526040830152606082015282805260015afa15611c42575f516001600160a01b03811615611c3857905f905f90565b505f906001905f90565b6040513d5f823e3d90fd5b5050505f916003919056fe2c149ed548c6d2993cd73efe187df6eccabe4538091b33adbd25fafdb8a1468ba2646970667358221220f03428a5cd73ca52ea7371dc8d384c41a4f92e30a731d5813b6c60f6ca99488464736f6c634300081a0033","linkReferences":{}},"methodIdentifiers":{"approve(address,uint256)":"095ea7b3","balanceOf(address)":"70a08231","getAgentWallet(uint256)":"00339509","getApproved(uint256)":"081812fc","getMetadata(uint256,string)":"cb4799f2","isApprovedForAll(address,address)":"e985e9c5","name()":"06fdde03","nextAgentId()":"30efc498","owner()":"8da5cb5b","ownerOf(uint256)":"6352211e","register()":"1aa3a008","register(string)":"f2c298be","register(string,(string,bytes)[])":"8ea42286","renounceOwnership()":"715018a6","safeTransferFrom(address,address,uint256)":"42842e0e","safeTransferFrom(address,address,uint256,bytes)":"b88d4fde","setAgentURI(uint256,string)":"0af28bd3","setAgentWallet(uint256,address,uint256,bytes)":"2d1ef5ae","setApprovalForAll(address,bool)":"a22cb465","setMetadata(uint256,string,bytes)":"466648da","supportsInterface(bytes4)":"01ffc9a7","symbol()":"95d89b41","tokenURI(uint256)":"c87b56dd","transferFrom(address,address,uint256)":"23b872dd","transferOwnership(address)":"f2fde38b"},"id":96}