{"abi":[{"type":"constructor","inputs":[{"name":"_identityRegistry","type":"address","internalType":"address"}],"stateMutability":"nonpayable"},{"type":"function","name":"feedbackCounts","inputs":[{"name":"","type":"uint256","internalType":"uint256"},{"name":"","type":"address","internalType":"address"}],"outputs":[{"name":"","type":"uint64","internalType":"uint64"}],"stateMutability":"view"},{"type":"function","name":"feedbacks","inputs":[{"name":"","type":"uint256","internalType":"uint256"},{"name":"","type":"address","internalType":"address"},{"name":"","type":"uint256","internalType":"uint256"}],"outputs":[{"name":"value","type":"int128","internalType":"int128"},{"name":"valueDecimals","type":"uint8","internalType":"uint8"},{"name":"tag1","type":"string","internalType":"string"},{"name":"tag2","type":"string","internalType":"string"},{"name":"isRevoked","type":"bool","internalType":"bool"}],"stateMutability":"view"},{"type":"function","name":"getFeedback","inputs":[{"name":"agentId","type":"uint256","internalType":"uint256"},{"name":"client","type":"address","internalType":"address"},{"name":"feedbackIndex","type":"uint64","internalType":"uint64"}],"outputs":[{"name":"","type":"tuple","internalType":"struct AgentReputation.Feedback","components":[{"name":"value","type":"int128","internalType":"int128"},{"name":"valueDecimals","type":"uint8","internalType":"uint8"},{"name":"tag1","type":"string","internalType":"string"},{"name":"tag2","type":"string","internalType":"string"},{"name":"isRevoked","type":"bool","internalType":"bool"}]}],"stateMutability":"view"},{"type":"function","name":"giveFeedback","inputs":[{"name":"agentId","type":"uint256","internalType":"uint256"},{"name":"value","type":"int128","internalType":"int128"},{"name":"valueDecimals","type":"uint8","internalType":"uint8"},{"name":"tag1","type":"string","internalType":"string"},{"name":"tag2","type":"string","internalType":"string"},{"name":"endpoint","type":"string","internalType":"string"},{"name":"feedbackURI","type":"string","internalType":"string"},{"name":"feedbackHash","type":"bytes32","internalType":"bytes32"}],"outputs":[],"stateMutability":"nonpayable"},{"type":"function","name":"identityRegistry","inputs":[],"outputs":[{"name":"","type":"address","internalType":"address"}],"stateMutability":"view"},{"type":"function","name":"owner","inputs":[],"outputs":[{"name":"","type":"address","internalType":"address"}],"stateMutability":"view"},{"type":"function","name":"renounceOwnership","inputs":[],"outputs":[],"stateMutability":"nonpayable"},{"type":"function","name":"revokeFeedback","inputs":[{"name":"agentId","type":"uint256","internalType":"uint256"},{"name":"feedbackIndex","type":"uint64","internalType":"uint64"}],"outputs":[],"stateMutability":"nonpayable"},{"type":"function","name":"transferOwnership","inputs":[{"name":"newOwner","type":"address","internalType":"address"}],"outputs":[],"stateMutability":"nonpayable"},{"type":"event","name":"FeedbackRevoked","inputs":[{"name":"agentId","type":"uint256","indexed":true,"internalType":"uint256"},{"name":"clientAddress","type":"address","indexed":true,"internalType":"address"},{"name":"feedbackIndex","type":"uint64","indexed":true,"internalType":"uint64"}],"anonymous":false},{"type":"event","name":"NewFeedback","inputs":[{"name":"agentId","type":"uint256","indexed":true,"internalType":"uint256"},{"name":"clientAddress","type":"address","indexed":true,"internalType":"address"},{"name":"feedbackIndex","type":"uint64","indexed":false,"internalType":"uint64"},{"name":"value","type":"int128","indexed":false,"internalType":"int128"},{"name":"valueDecimals","type":"uint8","indexed":false,"internalType":"uint8"},{"name":"indexedTag1","type":"string","indexed":true,"internalType":"string"},{"name":"tag1","type":"string","indexed":false,"internalType":"string"},{"name":"tag2","type":"string","indexed":false,"internalType":"string"},{"name":"endpoint","type":"string","indexed":false,"internalType":"string"},{"name":"feedbackURI","type":"string","indexed":false,"internalType":"string"},{"name":"feedbackHash","type":"bytes32","indexed":false,"internalType":"bytes32"}],"anonymous":false},{"type":"event","name":"OwnershipTransferred","inputs":[{"name":"previousOwner","type":"address","indexed":true,"internalType":"address"},{"name":"newOwner","type":"address","indexed":true,"internalType":"address"}],"anonymous":false},{"type":"error","name":"OwnableInvalidOwner","inputs":[{"name":"owner","type":"address","internalType":"address"}]},{"type":"error","name":"OwnableUnauthorizedAccount","inputs":[{"name":"account","type":"address","internalType":"address"}]}],"bytecode":{"object":"0x60803460cd57601f610f2938819003918201601f19168301916001600160401b0383118484101760d15780849260209460405283398101031260cd57516001600160a01b0381169081900360cd57331560ba575f8054336001600160a01b0319821681178355604051939290916001600160a01b0316907f8be0079c531659141344cd1fd0a4f28419497f9722a3daafe3b4186f6b6457e09080a3600180546001600160a01b031916919091179055610e4390816100e68239f35b631e4fbdf760e01b5f525f60045260245ffd5b5f80fd5b634e487b7160e01b5f52604160045260245ffdfe6080806040526004361015610012575f80fd5b5f3560e01c908163134e18f414610b5d575080633c036a7e146105135780634ab3ca9914610412578063597d2f7b146103c557806365a52cd614610308578063715018a6146102b15780638da5cb5b1461028a578063a3a6ba381461010c5763f2fde38b1461007f575f80fd5b34610108576020366003190112610108576004356001600160a01b03811690819003610108576100ad610de7565b80156100f5575f80546001600160a01b03198116831782556001600160a01b0316907f8be0079c531659141344cd1fd0a4f28419497f9722a3daafe3b4186f6b6457e09080a3005b631e4fbdf760e01b5f525f60045260245ffd5b5f80fd5b3461010857606036600319011261010857600435610128610bad565b604435906001600160401b038216928383036101085761017c6101a8945f608060405161015481610c28565b8281528260208201526060604082015260608082015201528015159081610258575b50610d8d565b5f52600260205260405f209060018060a01b03165f526020526101a260405f2091610dc9565b90610bc3565b506040516101b581610c28565b81549182600f0b825260ff602083019360801c16835261024b6101da60018301610c64565b916040840192835261023860ff60036101f560028501610c64565b93606088019485520154169360808601941515855260ff6040519788976020895251600f0b6020890152511660408701525160a0606087015260c0860190610d04565b9051848203601f19016080860152610d04565b9051151560a08301520390f35b9050825f52600360205260405f2060018060a01b0385165f526020526001600160401b0360405f205416101586610176565b34610108575f366003190112610108575f546040516001600160a01b039091168152602090f35b34610108575f366003190112610108576102c9610de7565b5f80546001600160a01b0319811682556001600160a01b03167f8be0079c531659141344cd1fd0a4f28419497f9722a3daafe3b4186f6b6457e08280a3005b3461010857606036600319011261010857610321610bad565b604435906004355f52600260205260405f209060018060a01b03165f5260205260405f2080548210156101085760ff9161035a91610bc3565b508054906103b961036d60018301610c64565b916103ab85600361038060028501610c64565b930154169360405196868897600f0b885260801c16602087015260a0604087015260a0860190610d04565b908482036060860152610d04565b90151560808301520390f35b34610108576040366003190112610108576103de610bad565b6004355f52600360205260405f209060018060a01b03165f5260205260206001600160401b0360405f205416604051908152f35b3461010857604036600319011261010857600435602435906001600160401b0382169182810361010857610476600391841515806104ea575b61045490610d8d565b5f8481526002602090815260408083203384529091529020906101a290610dc9565b5001805460ff81166104b35760ff1916600117905533907f25156fd3288212246d8b008d5921fde376c71ed14ac2e072a506eb06fde6d09d5f80a4005b60405162461bcd60e51b815260206004820152600f60248201526e105b1c9958591e481c995d9bdad959608a1b6044820152606490fd5b505f848152602084815260408083203384529091529020546001600160401b031685111561044b565b3461010857610100366003190112610108576004356024359081600f0b809203610108576044359060ff8216809203610108576064356001600160401b03811161010857610565903690600401610b80565b906084356001600160401b03811161010857610585903690600401610b80565b9060a4356001600160401b038111610108576105a5903690600401610b80565b91909260c4356001600160401b038111610108576105c7903690600401610b80565b95909660128a11610b25576001546040516331a9108f60e11b8152600481018b905290602090829060249082906001600160a01b03165afa5f9181610ae1575b506106485760405162461bcd60e51b81526020600482015260146024820152731059d95b9d08191bd95cc81b9bdd08195e1a5cdd60621b6044820152606490fd5b6001600160a01b03163314610aa457885f52600360205260405f2060018060a01b0333165f5260205260016001600160401b0360405f20541601996001600160401b038b11610a9057895f52600360205260405f2060018060a01b0333165f526020526001600160401b0360405f209b169a8b6001600160401b0319825416179055895f52600260205260405f2060018060a01b0333165f5260205260405f206040516106f481610c28565b8d815260208101838152610709368688610d28565b6040830190815261071b36898b610d28565b916060840192835260808401945f86528054680100000000000000008110156109ab5761074d91600182018155610bc3565b949094610a7d57518454915170ffffffffffffffffffffffffffffffffff199092166fffffffffffffffffffffffffffffffff9091161760809190911b60ff60801b1617835551805160018401916001600160401b0382116109ab5781906107b58454610bf0565b601f8111610a2d575b50602090601f83116001146109ca575f926109bf575b50508160011b915f199060031b1c19161790555b51805160028301916001600160401b0382116109ab576108088354610bf0565b601f8111610966575b50602090601f8311600114610900576003949392915f91836108f5575b50508160011b915f1990861b1c19161790555b019051151560ff198254169060ff1617905560405182848237808381015f81520390209b6040519b8c5260208c015260408b015260608a0161010090526101008a019061088d92610d6d565b9088820360808a015261089f92610d6d565b9086820360a08801526108b192610d6d565b9084820360c08601526108c392610d6d565b9160e43560e0820152803393037f6a4a61743519c9d648a14e6493f47dbe3ff1aa29e7785c96c8326a205e58febc91a4005b015190505f8061082e565b90601f19831691845f52815f20925f5b81811061094e575091600193918560039897969410610937575b505050811b019055610841565b01515f1983881b60f8161c191690555f808061092a565b92936020600181928786015181550195019301610910565b835f5260205f20601f840160051c810191602085106109a1575b601f0160051c01905b8181106109965750610811565b5f8155600101610989565b9091508190610980565b634e487b7160e01b5f52604160045260245ffd5b015190505f806107d4565b5f8581528281209350601f198516905b818110610a1557509084600195949392106109fd575b505050811b0190556107e8565b01515f1960f88460031b161c191690555f80806109f0565b929360206001819287860151815501950193016109da565b909150835f5260205f20601f840160051c81019160208510610a73575b90601f859493920160051c01905b818110610a6557506107be565b5f8155849350600101610a58565b9091508190610a4a565b634e487b7160e01b5f525f60045260245ffd5b634e487b7160e01b5f52601160045260245ffd5b60405162461bcd60e51b815260206004820152601560248201527410d85b9b9bdd081c985d19481bdddb881859d95b9d605a1b6044820152606490fd5b9091506020813d602011610b1d575b81610afd60209383610c43565b8101031261010857516001600160a01b038116810361010857908d610607565b3d9150610af0565b60405162461bcd60e51b815260206004820152601060248201526f496e76616c696420646563696d616c7360801b6044820152606490fd5b34610108575f366003190112610108576001546001600160a01b03168152602090f35b9181601f84011215610108578235916001600160401b038311610108576020838186019501011161010857565b602435906001600160a01b038216820361010857565b8054821015610bdc575f5260205f209060021b01905f90565b634e487b7160e01b5f52603260045260245ffd5b90600182811c92168015610c1e575b6020831014610c0a57565b634e487b7160e01b5f52602260045260245ffd5b91607f1691610bff565b60a081019081106001600160401b038211176109ab57604052565b90601f801991011681019081106001600160401b038211176109ab57604052565b9060405191825f825492610c7784610bf0565b8084529360018116908115610ce25750600114610c9e575b50610c9c92500383610c43565b565b90505f9291925260205f20905f915b818310610cc6575050906020610c9c928201015f610c8f565b6020919350806001915483858901015201910190918492610cad565b905060209250610c9c94915060ff191682840152151560051b8201015f610c8f565b805180835260209291819084018484015e5f828201840152601f01601f1916010190565b9291926001600160401b0382116109ab5760405191610d51601f8201601f191660200184610c43565b829481845281830111610108578281602093845f960137010152565b908060209392818452848401375f828201840152601f01601f1916010190565b15610d9457565b60405162461bcd60e51b815260206004820152600d60248201526c092dcecc2d8d2c840d2dcc8caf609b1b6044820152606490fd5b6001600160401b035f19911601906001600160401b038211610a9057565b5f546001600160a01b03163303610dfa57565b63118cdaa760e01b5f523360045260245ffdfea26469706673582212205695951fd607cbf523bb89155e5df348f0293028470848918631b672a558f4c264736f6c634300081a0033","linkReferences":{}},"methodIdentifiers":{"feedbackCounts(uint256,address)":"597d2f7b","feedbacks(uint256,address,uint256)":"65a52cd6","getFeedback(uint256,address,uint64)":"a3a6ba38","giveFeedback(uint256,int128,uint8,string,string,string,string,bytes32)":"3c036a7e","identityRegistry()":"134e18f4","owner()":"8da5cb5b","renounceOwnership()":"715018a6","revokeFeedback(uint256,uint64)":"4ab3ca99","transferOwnership(address)":"f2fde38b"},"id":97}