{"abi":[{"type":"constructor","inputs":[{"name":"_poolManager","type":"address","internalType":"contract IPoolManager"},{"name":"_reputation","type":"address","internalType":"address"}],"stateMutability":"nonpayable"},{"type":"function","name":"MAX_ITERATIONS","inputs":[],"outputs":[{"name":"","type":"uint256","internalType":"uint256"}],"stateMutability":"view"},{"type":"function","name":"POOL_MANAGER","inputs":[],"outputs":[{"name":"","type":"address","internalType":"contract IPoolManager"}],"stateMutability":"view"},{"type":"function","name":"afterAddLiquidity","inputs":[{"name":"","type":"address","internalType":"address"},{"name":"","type":"tuple","internalType":"struct PoolKey","components":[{"name":"currency0","type":"address","internalType":"Currency"},{"name":"currency1","type":"address","internalType":"Currency"},{"name":"fee","type":"uint24","internalType":"uint24"},{"name":"tickSpacing","type":"int24","internalType":"int24"},{"name":"hooks","type":"address","internalType":"contract IHooks"}]},{"name":"","type":"tuple","internalType":"struct ModifyLiquidityParams","components":[{"name":"tickLower","type":"int24","internalType":"int24"},{"name":"tickUpper","type":"int24","internalType":"int24"},{"name":"liquidityDelta","type":"int256","internalType":"int256"},{"name":"salt","type":"bytes32","internalType":"bytes32"}]},{"name":"","type":"int256","internalType":"BalanceDelta"},{"name":"","type":"int256","internalType":"BalanceDelta"},{"name":"","type":"bytes","internalType":"bytes"}],"outputs":[{"name":"","type":"bytes4","internalType":"bytes4"},{"name":"","type":"int256","internalType":"BalanceDelta"}],"stateMutability":"pure"},{"type":"function","name":"afterDonate","inputs":[{"name":"","type":"address","internalType":"address"},{"name":"","type":"tuple","internalType":"struct PoolKey","components":[{"name":"currency0","type":"address","internalType":"Currency"},{"name":"currency1","type":"address","internalType":"Currency"},{"name":"fee","type":"uint24","internalType":"uint24"},{"name":"tickSpacing","type":"int24","internalType":"int24"},{"name":"hooks","type":"address","internalType":"contract IHooks"}]},{"name":"","type":"uint256","internalType":"uint256"},{"name":"","type":"uint256","internalType":"uint256"},{"name":"","type":"bytes","internalType":"bytes"}],"outputs":[{"name":"","type":"bytes4","internalType":"bytes4"}],"stateMutability":"pure"},{"type":"function","name":"afterInitialize","inputs":[{"name":"","type":"address","internalType":"address"},{"name":"","type":"tuple","internalType":"struct PoolKey","components":[{"name":"currency0","type":"address","internalType":"Currency"},{"name":"currency1","type":"address","internalType":"Currency"},{"name":"fee","type":"uint24","internalType":"uint24"},{"name":"tickSpacing","type":"int24","internalType":"int24"},{"name":"hooks","type":"address","internalType":"contract IHooks"}]},{"name":"","type":"uint160","internalType":"uint160"},{"name":"","type":"int24","internalType":"int24"}],"outputs":[{"name":"","type":"bytes4","internalType":"bytes4"}],"stateMutability":"pure"},{"type":"function","name":"afterRemoveLiquidity","inputs":[{"name":"","type":"address","internalType":"address"},{"name":"","type":"tuple","internalType":"struct PoolKey","components":[{"name":"currency0","type":"address","internalType":"Currency"},{"name":"currency1","type":"address","internalType":"Currency"},{"name":"fee","type":"uint24","internalType":"uint24"},{"name":"tickSpacing","type":"int24","internalType":"int24"},{"name":"hooks","type":"address","internalType":"contract IHooks"}]},{"name":"","type":"tuple","internalType":"struct ModifyLiquidityParams","components":[{"name":"tickLower","type":"int24","internalType":"int24"},{"name":"tickUpper","type":"int24","internalType":"int24"},{"name":"liquidityDelta","type":"int256","internalType":"int256"},{"name":"salt","type":"bytes32","internalType":"bytes32"}]},{"name":"","type":"int256","internalType":"BalanceDelta"},{"name":"","type":"int256","internalType":"BalanceDelta"},{"name":"","type":"bytes","internalType":"bytes"}],"outputs":[{"name":"","type":"bytes4","internalType":"bytes4"},{"name":"","type":"int256","internalType":"BalanceDelta"}],"stateMutability":"pure"},{"type":"function","name":"afterSwap","inputs":[{"name":"","type":"address","internalType":"address"},{"name":"","type":"tuple","internalType":"struct PoolKey","components":[{"name":"currency0","type":"address","internalType":"Currency"},{"name":"currency1","type":"address","internalType":"Currency"},{"name":"fee","type":"uint24","internalType":"uint24"},{"name":"tickSpacing","type":"int24","internalType":"int24"},{"name":"hooks","type":"address","internalType":"contract IHooks"}]},{"name":"","type":"tuple","internalType":"struct SwapParams","components":[{"name":"zeroForOne","type":"bool","internalType":"bool"},{"name":"amountSpecified","type":"int256","internalType":"int256"},{"name":"sqrtPriceLimitX96","type":"uint160","internalType":"uint160"}]},{"name":"","type":"int256","internalType":"BalanceDelta"},{"name":"","type":"bytes","internalType":"bytes"}],"outputs":[{"name":"","type":"bytes4","internalType":"bytes4"},{"name":"","type":"int128","internalType":"int128"}],"stateMutability":"pure"},{"type":"function","name":"allowedBots","inputs":[{"name":"","type":"address","internalType":"address"}],"outputs":[{"name":"","type":"bool","internalType":"bool"}],"stateMutability":"view"},{"type":"function","name":"beforeAddLiquidity","inputs":[{"name":"","type":"address","internalType":"address"},{"name":"","type":"tuple","internalType":"struct PoolKey","components":[{"name":"currency0","type":"address","internalType":"Currency"},{"name":"currency1","type":"address","internalType":"Currency"},{"name":"fee","type":"uint24","internalType":"uint24"},{"name":"tickSpacing","type":"int24","internalType":"int24"},{"name":"hooks","type":"address","internalType":"contract IHooks"}]},{"name":"","type":"tuple","internalType":"struct ModifyLiquidityParams","components":[{"name":"tickLower","type":"int24","internalType":"int24"},{"name":"tickUpper","type":"int24","internalType":"int24"},{"name":"liquidityDelta","type":"int256","internalType":"int256"},{"name":"salt","type":"bytes32","internalType":"bytes32"}]},{"name":"","type":"bytes","internalType":"bytes"}],"outputs":[{"name":"","type":"bytes4","internalType":"bytes4"}],"stateMutability":"pure"},{"type":"function","name":"beforeDonate","inputs":[{"name":"","type":"address","internalType":"address"},{"name":"","type":"tuple","internalType":"struct PoolKey","components":[{"name":"currency0","type":"address","internalType":"Currency"},{"name":"currency1","type":"address","internalType":"Currency"},{"name":"fee","type":"uint24","internalType":"uint24"},{"name":"tickSpacing","type":"int24","internalType":"int24"},{"name":"hooks","type":"address","internalType":"contract IHooks"}]},{"name":"","type":"uint256","internalType":"uint256"},{"name":"","type":"uint256","internalType":"uint256"},{"name":"","type":"bytes","internalType":"bytes"}],"outputs":[{"name":"","type":"bytes4","internalType":"bytes4"}],"stateMutability":"pure"},{"type":"function","name":"beforeInitialize","inputs":[{"name":"","type":"address","internalType":"address"},{"name":"","type":"tuple","internalType":"struct PoolKey","components":[{"name":"currency0","type":"address","internalType":"Currency"},{"name":"currency1","type":"address","internalType":"Currency"},{"name":"fee","type":"uint24","internalType":"uint24"},{"name":"tickSpacing","type":"int24","internalType":"int24"},{"name":"hooks","type":"address","internalType":"contract IHooks"}]},{"name":"","type":"uint160","internalType":"uint160"}],"outputs":[{"name":"","type":"bytes4","internalType":"bytes4"}],"stateMutability":"pure"},{"type":"function","name":"beforeRemoveLiquidity","inputs":[{"name":"","type":"address","internalType":"address"},{"name":"","type":"tuple","internalType":"struct PoolKey","components":[{"name":"currency0","type":"address","internalType":"Currency"},{"name":"currency1","type":"address","internalType":"Currency"},{"name":"fee","type":"uint24","internalType":"uint24"},{"name":"tickSpacing","type":"int24","internalType":"int24"},{"name":"hooks","type":"address","internalType":"contract IHooks"}]},{"name":"","type":"tuple","internalType":"struct ModifyLiquidityParams","components":[{"name":"tickLower","type":"int24","internalType":"int24"},{"name":"tickUpper","type":"int24","internalType":"int24"},{"name":"liquidityDelta","type":"int256","internalType":"int256"},{"name":"salt","type":"bytes32","internalType":"bytes32"}]},{"name":"","type":"bytes","internalType":"bytes"}],"outputs":[{"name":"","type":"bytes4","internalType":"bytes4"}],"stateMutability":"pure"},{"type":"function","name":"beforeSwap","inputs":[{"name":"sender","type":"address","internalType":"address"},{"name":"key","type":"tuple","internalType":"struct PoolKey","components":[{"name":"currency0","type":"address","internalType":"Currency"},{"name":"currency1","type":"address","internalType":"Currency"},{"name":"fee","type":"uint24","internalType":"uint24"},{"name":"tickSpacing","type":"int24","internalType":"int24"},{"name":"hooks","type":"address","internalType":"contract IHooks"}]},{"name":"params","type":"tuple","internalType":"struct SwapParams","components":[{"name":"zeroForOne","type":"bool","internalType":"bool"},{"name":"amountSpecified","type":"int256","internalType":"int256"},{"name":"sqrtPriceLimitX96","type":"uint160","internalType":"uint160"}]},{"name":"","type":"bytes","internalType":"bytes"}],"outputs":[{"name":"","type":"bytes4","internalType":"bytes4"},{"name":"","type":"int256","internalType":"BeforeSwapDelta"},{"name":"","type":"uint24","internalType":"uint24"}],"stateMutability":"nonpayable"},{"type":"function","name":"cancelOrder","inputs":[{"name":"orderId","type":"uint256","internalType":"uint256"},{"name":"key","type":"tuple","internalType":"struct PoolKey","components":[{"name":"currency0","type":"address","internalType":"Currency"},{"name":"currency1","type":"address","internalType":"Currency"},{"name":"fee","type":"uint24","internalType":"uint24"},{"name":"tickSpacing","type":"int24","internalType":"int24"},{"name":"hooks","type":"address","internalType":"contract IHooks"}]}],"outputs":[],"stateMutability":"nonpayable"},{"type":"function","name":"nextOrderId","inputs":[],"outputs":[{"name":"","type":"uint256","internalType":"uint256"}],"stateMutability":"view"},{"type":"function","name":"orders","inputs":[{"name":"","type":"uint256","internalType":"uint256"}],"outputs":[{"name":"maker","type":"address","internalType":"address"},{"name":"sellToken0","type":"bool","internalType":"bool"},{"name":"amountIn","type":"uint128","internalType":"uint128"},{"name":"minAmountOut","type":"uint128","internalType":"uint128"},{"name":"expiry","type":"uint256","internalType":"uint256"},{"name":"active","type":"bool","internalType":"bool"},{"name":"poolId","type":"bytes32","internalType":"bytes32"},{"name":"isHuman","type":"bool","internalType":"bool"},{"name":"currency0","type":"address","internalType":"Currency"},{"name":"currency1","type":"address","internalType":"Currency"}],"stateMutability":"view"},{"type":"function","name":"poolOrders","inputs":[{"name":"","type":"bytes32","internalType":"bytes32"},{"name":"","type":"uint256","internalType":"uint256"}],"outputs":[{"name":"","type":"uint256","internalType":"uint256"}],"stateMutability":"view"},{"type":"function","name":"postOrder","inputs":[{"name":"key","type":"tuple","internalType":"struct PoolKey","components":[{"name":"currency0","type":"address","internalType":"Currency"},{"name":"currency1","type":"address","internalType":"Currency"},{"name":"fee","type":"uint24","internalType":"uint24"},{"name":"tickSpacing","type":"int24","internalType":"int24"},{"name":"hooks","type":"address","internalType":"contract IHooks"}]},{"name":"sellToken0","type":"bool","internalType":"bool"},{"name":"amountIn","type":"uint128","internalType":"uint128"},{"name":"minAmountOut","type":"uint128","internalType":"uint128"},{"name":"duration","type":"uint256","internalType":"uint256"}],"outputs":[{"name":"orderId","type":"uint256","internalType":"uint256"}],"stateMutability":"nonpayable"},{"type":"function","name":"reputation","inputs":[],"outputs":[{"name":"","type":"address","internalType":"contract AgentReputation"}],"stateMutability":"view"},{"type":"function","name":"sentinel","inputs":[],"outputs":[{"name":"","type":"address","internalType":"address"}],"stateMutability":"view"},{"type":"function","name":"setSentinel","inputs":[{"name":"_sentinel","type":"address","internalType":"address"}],"outputs":[],"stateMutability":"nonpayable"},{"type":"function","name":"triggerOrder","inputs":[{"name":"orderId","type":"uint256","internalType":"uint256"},{"name":"agentId","type":"uint256","internalType":"uint256"},{"name":"beneficiary","type":"address","internalType":"address"}],"outputs":[],"stateMutability":"nonpayable"},{"type":"event","name":"OrderCancelled","inputs":[{"name":"orderId","type":"uint256","indexed":true,"internalType":"uint256"},{"name":"maker","type":"address","indexed":true,"internalType":"address"}],"anonymous":false},{"type":"event","name":"OrderExpired","inputs":[{"name":"orderId","type":"uint256","indexed":true,"internalType":"uint256"},{"name":"maker","type":"address","indexed":true,"internalType":"address"}],"anonymous":false},{"type":"event","name":"OrderFilled","inputs":[{"name":"orderId","type":"uint256","indexed":true,"internalType":"uint256"},{"name":"taker","type":"address","indexed":true,"internalType":"address"},{"name":"byReactiveAi","type":"bool","indexed":false,"internalType":"bool"}],"anonymous":false},{"type":"event","name":"OrderPosted","inputs":[{"name":"orderId","type":"uint256","indexed":true,"internalType":"uint256"},{"name":"maker","type":"address","indexed":true,"internalType":"address"},{"name":"isHuman","type":"bool","indexed":false,"internalType":"bool"},{"name":"amountIn","type":"uint128","indexed":false,"internalType":"uint128"},{"name":"minAmountOut","type":"uint128","indexed":false,"internalType":"uint128"}],"anonymous":false},{"type":"error","name":"AmountOverflow","inputs":[]},{"type":"error","name":"InvalidAmounts","inputs":[]},{"type":"error","name":"NotSentinel","inputs":[]},{"type":"error","name":"NotWhitelisted","inputs":[]},{"type":"error","name":"OrderNotActive","inputs":[]},{"type":"error","name":"OrderNotFound","inputs":[]},{"type":"error","name":"PoolMismatch","inputs":[]},{"type":"error","name":"ReentrancyGuardReentrantCall","inputs":[]},{"type":"error","name":"SafeERC20FailedOperation","inputs":[{"name":"token","type":"address","internalType":"address"}]},{"type":"error","name":"Unauthorized","inputs":[]}],"bytecode":{"object":"0x60a03460c357601f6119df38819003918201601f19168301916001600160401b0383118484101760c757808492604094855283398101031260c3578051906001600160a01b038216820360c357602001516001600160a01b038116919082900360c35760017f9b779b17422d0df92223018b32b4d1fa46e071723d6817e2486d003becc55f0055608052600580546001600160a01b03191691909117905560405161190390816100dc82396080518181816103760152818161041e01526110ef0152f35b5f80fd5b634e487b7160e01b5f52604160045260245ffdfe60806040526004361015610011575f80fd5b5f3560e01c806309dac061146101745780631d92c26d1461016f57806321d0ee701461016a578063259982e5146101655780632a58b33014610160578063575e24b41461015b57806362308e85146101565780636c2bbe7e146101515780636fe7e6eb1461014c5780639f063efc14610147578063a85c38ef14610142578063b47b2fb11461013d578063b6a8b0fa14610138578063bf8d3a6314610133578063c0ffd5e31461012e578063c3e0858b14610129578063c52164c614610124578063d10c151d1461011f578063d3d368c01461011a578063dc98354e14610115578063e1b4af69146101105763f58c251c1461010b575f80fd5b610fb3565b610f8e565b610f4b565b610f0b565b610ec5565b610e74565b610d1d565b610afc565b61071c565b6106f7565b61063c565b610555565b61052a565b6104da565b6104af565b610409565b610320565b6102f2565b6102ce565b6102aa565b6101e2565b61019a565b6001600160a01b031690565b6001600160a01b0381160361019657565b5f80fd5b34610196576020366003190112610196576004356101b781610185565b5f80546001600160a01b0319166001600160a01b0392909216919091179055005b5f91031261019657565b34610196575f36600319011261019657602060405160328152f35b60a090602319011261019657602490565b60a090600319011261019657600490565b9181601f840112156101965782359167ffffffffffffffff8311610196576020838186019501011161019657565b906101606003198301126101965760043561026781610185565b9160a060231982011261019657602491608060c3198301126101965760c491610144359067ffffffffffffffff8211610196576102a69160040161021f565b9091565b34610196576102b83661024d565b5050505050602060405163021d0ee760e41b8152f35b34610196576102dc3661024d565b5050505050602060405163259982e560e01b8152f35b34610196575f366003190112610196576020600254604051908152f35b60609060c31901126101965760c490565b34610196576101403660031901126101965760043561033e81610185565b610347366101fd565b906103513661030f565b6101243567ffffffffffffffff81116101965761037290369060040161021f565b50507f00000000000000000000000000000000000000000000000000000000000000006001600160a01b031633036103fb576103f7926103b9926103b46116df565b61108f565b60015f805160206118ae83398151915255604080516001600160e01b03199094168452602084019290925262ffffff16908201529081906060820190565b0390f35b6282b42960e81b5f5260045ffd5b34610196575f366003190112610196576040517f00000000000000000000000000000000000000000000000000000000000000006001600160a01b03168152602090f35b906101a06003198301126101965760043561046781610185565b9160a060231982011261019657602491608060c48303126101965760c49161014435916101643591610184359067ffffffffffffffff8211610196576102a69160040161021f565b34610196576104bd3661044d565b5050505050505060408051633615df3f60e11b81525f6020820152f35b3461019657610100366003190112610196576104f7600435610185565b610500366101fd565b5061050c60c435610185565b60e4358060020b0361019657604051636fe7e6eb60e01b8152602090f35b34610196576105383661044d565b50505050505050604080516327c18fbf60e21b81525f6020820152f35b34610196576020366003190112610196576004355f52600360205260405f2080546103f760018301549260028101549060ff60038201541660048201546005830154916105c960066105ba6105aa8660ff1690565b9560081c6001600160a01b031690565b9501546001600160a01b031690565b604080516001600160a01b03808b16825260a09a8b1c60ff16151560208301526001600160801b038c169282019290925260809a8b1c6060820152998a01969096529015159688019690965260c0870152151560e086015281166101008501529091166101208301528190610140820190565b346101965761016036600319011261019657610659600435610185565b610662366101fd565b5061066c3661030f565b506101443567ffffffffffffffff81116101965761068e90369060040161021f565b50506040805163b47b2fb160e01b81525f6020820152f35b610120600319820112610196576004356106bf81610185565b9160a06023198301126101965760249160c4359160e43591610104359067ffffffffffffffff8211610196576102a69160040161021f565b3461019657610705366106a6565b5050505050506020604051635b54587d60e11b8152f35b346101965760603660031901126101965760243560443560043561073f82610185565b5f546001600160a01b03163303610ab7576107586116df565b61076a815f52600360205260405f2090565b600381019061078161077d835460ff1690565b1590565b610aa85760055483919061079d906001600160a01b0316610179565b6001600160a01b038116151580610a8b575b61097c575b508061086561086c9461085b600494548961084c6108246107d98460ff9060a01c1690565b93841561096857600589015460081c6001600160a01b0316945b156109425760068901546001600160a01b039081169161083f91165b9160018b019286610830610824865460801c90565b6001600160801b031690565b926001600160a01b0316611846565b546001600160801b031690565b916001600160a01b03166117c9565b805460ff19169055565b0154611725565b604051600181526001600160a01b0392909216917f289a525e2fe656ccb97ffd0dc6509e3dc75c8b482952235637d2d09f08db429290602090a36005546108bb906001600160a01b0316610179565b6001600160a01b0381166108e2575b6108e060015f805160206118ae83398151915255565b005b803b1561019657604051631e01b53f60e11b8152915f91839182908490829061090e906004830161146a565b03925af1801561093d57610923575b806108ca565b806109315f6109379361102e565b806101d8565b5f61091d565b611055565b600589015461083f9061080f9060081c6001600160a01b0316926001600160a01b031690565b60068901546001600160a01b0316946107f3565b6040516304d3863d60e21b81529250602090839060049082905afa801561093d5784925f91610a6c575b506001600160a01b031680156107b4576040516233950960e01b815260048101889052919250602090829060249082905afa90811561093d575f91610a3d575b506001600160a01b03858116911603610a015782905f6107b4565b60405162461bcd60e51b8152602060048201526014602482015273125b9d985b1a59081059d95b9d0815d85b1b195d60621b6044820152606490fd5b610a5f915060203d602011610a65575b610a57818361102e565b810190611455565b5f6109e6565b503d610a4d565b610a85915060203d602011610a6557610a57818361102e565b5f6109a6565b505f54610aa0906001600160a01b0316610179565b3314156107af565b631d4ecc5b60e01b5f5260045ffd5b6354a4cdb960e11b5f5260045ffd5b8015150361019657565b60c435906001600160801b038216820361019657565b60e435906001600160801b038216820361019657565b346101965761012036600319011261019657610b173661020e565b60a435610b2381610ac6565b610b2b610ad0565b610b33610ae6565b6101043590610b406116df565b6001600160801b038316908115610d0e57610c93610bad93610c8e88610c807fd574d04cee604aaf67e088da6c397c04011b1ed900bdbb15d090bd2e673227a096610b8d6103f79c611717565b926002549b8c9a8b97610ba7610ba28a6114f3565b600255565b42611501565b90610c5f8d610c488c610c37610bc288611010565b6020890197610c0b610bd38a611010565b94610bfb610bdf61150e565b338152988b151560208b01526001600160801b031660408a0152565b6001600160801b03166060880152565b6080860152600160a086015260c085018c905232331460e08601526001600160a01b0316610100850152565b6001600160a01b0316610120830152565b610c5a8a5f52600360205260405f2090565b611520565b15610cff5750610c6e90611010565b309033906001600160a01b0316611846565b5f52600460205260405f2090565b61169f565b610cb26005610caa855f52600360205260405f2090565b015460ff1690565b6040805191151582526001600160801b03958616602083015291909416908401523392606090a3610cef60015f805160206118ae83398151915255565b6040519081529081906020820190565b610d099150611010565b610c6e565b636c2b7e2d60e11b5f5260045ffd5b346101965760c036600319011261019657600435610d3a366101fd565b610d426116df565b610d54825f52600360205260405f2090565b90600254831015610e65578154610d73906001600160a01b0316610179565b33036103fb576003820190610d8c61077d835460ff1690565b610aa857610d9981611717565b60048401548103610e565784610dbf91610dba610e059560ff198154169055565b611725565b610dee835491610dd38360ff9060a01c1690565b15610e4a57610de190611010565b916001600160a01b031690565b61084c61082460018601546001600160801b031690565b546001600160a01b0316907fc0362da6f2ff36b382b34aec0814f6b3cdf89f5ef282a1d1f114d0c0b036d5965f80a36108e060015f805160206118ae83398151915255565b6020610de19101611010565b633aaca32d60e21b5f5260045ffd5b63d36d896560e01b5f5260045ffd5b34610196575f366003190112610196576005546040516001600160a01b039091168152602090f35b8054821015610eb1575f5260205f2001905f90565b634e487b7160e01b5f52603260045260245ffd5b34610196576040366003190112610196576024356004355f52600460205260405f20805482101561019657602091610efc91610e9c565b90549060031b1c604051908152f35b3461019657602036600319011261019657600435610f2881610185565b60018060a01b03165f526001602052602060ff60405f2054166040519015158152f35b346101965760e036600319011261019657610f67600435610185565b610f70366101fd565b50610f7c60c435610185565b604051636e4c1aa760e11b8152602090f35b3461019657610f9c366106a6565b505050505050602060405163e1b4af6960e01b8152f35b34610196575f366003190112610196575f546040516001600160a01b039091168152602090f35b634e487b7160e01b5f52601160045260245ffd5b600160ff1b8114610ffe575f0390565b610fda565b3561100d81610ac6565b90565b3561100d81610185565b634e487b7160e01b5f52604160045260245ffd5b90601f8019910116810190811067ffffffffffffffff82111761105057604052565b61101a565b6040513d5f823e3d90fd5b90816020910312610196575190565b600f0b6f7fffffffffffffffffffffffffffffff198114610ffe575f0390565b6020830135600160ff1b8114611446575f811215611432576108246110b391610fee565b916110bd81611717565b906110d0825f52600460205260405f2090565b948554603281105f14611427579495905b5f966001600160801b0316937f00000000000000000000000000000000000000000000000000000000000000006001600160a01b0316925b87891061113957506315d7892d60e21b985f985088975095505050505050565b6111506111468a83610e9c565b90549060031b1c90565b95611163875f52600360205260405f2090565b9860038a019261117761077d855460ff1690565b801561141a575b61140b578a5460a01c60ff1661119b61119688611003565b151590565b9015151461140b576108249b6111b760018d019d8e5460801c90565b84106113f55750505050856111dd9392610dba6111d89360ff198154169055565b611003565b156113c3576111f760206111f084611010565b9301611010565b915b611215611207885460801c90565b96546001600160a01b031690565b90823b1561019657604051630b0d9c0960e01b81526001600160a01b039182166004820152911660248201526001600160801b03861660448201525f8160648183865af1801561093d576113af575b50803b1561019657604051632961046560e21b81526001600160a01b0383166004820152905f8260248183855af1801561093d575f936020936112bc9261139b575b508261084c6108248b546001600160801b031690565b600460405180948193630476982d60e21b83525af1801561093d57611362956001600160801b03946113509461134b9461133c9461136f575b506040515f81526001600160a01b0392909216917f289a525e2fe656ccb97ffd0dc6509e3dc75c8b482952235637d2d09f08db429290602090a3546001600160801b031690565b6001600160801b0316600f0b90565b61106f565b6001600160801b0316911660801b1790565b6315d7892d60e21b915f90565b61138f9060203d8111611394575b611387818361102e565b810190611060565b6112f5565b503d61137d565b80610931876113a99361102e565b5f6112a6565b806109315f6113bd9361102e565b5f611264565b90806113dd6113d760206113ee9401611010565b91611010565b6001600160a01b0391821692911690565b91906111f9565b929b509397509850600191505b01979490611119565b93975098509860019150611402565b5060028b0154421161117e565b5060329495906110e1565b506315d7892d60e21b935f93508392509050565b630590fb9f60e01b5f5260045ffd5b90816020910312610196575161100d81610185565b91908252606460208301525f6040830152610100606083015260096101008301526832bc32b1baba34b7b760b91b61012083015261014060808301525f60e06114ee6114dd6040610140870160078152667375636365737360c81b60208201520186810360a08801526020905f81520190565b85810360c08701525f815260200190565b930152565b5f198114610ffe5760010190565b91908201809211610ffe57565b6040519061151e6101408361102e565b565b815181546001600160a01b0319166001600160a01b0390911617815561151e9160069061167e906101209061157561155b6020830151151590565b865460ff60a01b191690151560a01b60ff60a01b16178655565b6115dd600186016115af61159360408501516001600160801b031690565b82546001600160801b0319166001600160801b03909116178255565b60608301516001600160801b031681546001600160801b031660809190911b6001600160801b031916179055565b6080810151600286015561160c6115f760a0830151151590565b600387019060ff801983541691151516179055565b60c081015160048601556116706005860161163f61162d60e0850151151590565b829060ff801983541691151516179055565b6101008301516001600160a01b03168154610100600160a81b03191660089190911b610100600160a81b0316179055565b01516001600160a01b031690565b910180546001600160a01b0319166001600160a01b03909216919091179055565b908154916801000000000000000083101561105057826116c791600161151e95018155610e9c565b90919082549060031b91821b915f19901b1916179055565b60025f805160206118ae83398151915254146117085760025f805160206118ae83398151915255565b633ee5aeb560e01b5f5260045ffd5b60a090816040519182372090565b5f52600460205260405f205f5b8154808210156117c357836117478385610e9c565b90549060031b1c1461175c5750600101611732565b9192505f198201918211610ffe576116c761177a6117889385610e9c565b90549060031b1c9184610e9c565b805480156117af575f19019061179e8282610e9c565b8154905f199060031b1b1916905555565b634e487b7160e01b5f52603160045260245ffd5b50505050565b916040519163a9059cbb60e01b5f5260018060a01b031660045260245260205f60448180865af160015f5114811615611827575b604091909152155b61180c5750565b635274afe760e01b5f526001600160a01b031660045260245ffd5b600181151661183d573d15833b151516166117fd565b503d5f823e3d90fd5b6040516323b872dd60e01b5f9081526001600160a01b039384166004529290931660245260449390935260209060648180865af160015f5114811615611897575b6040919091525f60605215611805565b600181151661183d573d15833b1515161661188756fe9b779b17422d0df92223018b32b4d1fa46e071723d6817e2486d003becc55f00a264697066735822122035f88151905695d20baebcdd5418ace56a24e490eecee5bc07b1be1eb9399c4564736f6c634300081a0033","linkReferences":{}},"methodIdentifiers":{"MAX_ITERATIONS()":"1d92c26d","POOL_MANAGER()":"62308e85","afterAddLiquidity(address,(address,address,uint24,int24,address),(int24,int24,int256,bytes32),int256,int256,bytes)":"9f063efc","afterDonate(address,(address,address,uint24,int24,address),uint256,uint256,bytes)":"e1b4af69","afterInitialize(address,(address,address,uint24,int24,address),uint160,int24)":"6fe7e6eb","afterRemoveLiquidity(address,(address,address,uint24,int24,address),(int24,int24,int256,bytes32),int256,int256,bytes)":"6c2bbe7e","afterSwap(address,(address,address,uint24,int24,address),(bool,int256,uint160),int256,bytes)":"b47b2fb1","allowedBots(address)":"d3d368c0","beforeAddLiquidity(address,(address,address,uint24,int24,address),(int24,int24,int256,bytes32),bytes)":"259982e5","beforeDonate(address,(address,address,uint24,int24,address),uint256,uint256,bytes)":"b6a8b0fa","beforeInitialize(address,(address,address,uint24,int24,address),uint160)":"dc98354e","beforeRemoveLiquidity(address,(address,address,uint24,int24,address),(int24,int24,int256,bytes32),bytes)":"21d0ee70","beforeSwap(address,(address,address,uint24,int24,address),(bool,int256,uint160),bytes)":"575e24b4","cancelOrder(uint256,(address,address,uint24,int24,address))":"c3e0858b","nextOrderId()":"2a58b330","orders(uint256)":"a85c38ef","poolOrders(bytes32,uint256)":"d10c151d","postOrder((address,address,uint24,int24,address),bool,uint128,uint128,uint256)":"c0ffd5e3","reputation()":"c52164c6","sentinel()":"f58c251c","setSentinel(address)":"09dac061","triggerOrder(uint256,uint256,address)":"bf8d3a63"},"id":61}